:020000040800F2
:1000000000280020F10B0008310A0008370A000818
:100010003D0A0008430A0008490A000800000000E1
:100020000000000000000000000000004F0A00086F
:100030005B0A000800000000670A0008730A000855
:10004000390C0008390C0008390C0008390C00087C
:10005000390C0008390C0008390C0008390C00086C
:10006000390C0008390C0008390C0008390C00085C
:10007000390C0008390C0008390C0008390C00084C
:10008000390C0008390C0008390C0008390C00083C
:10009000390C0008390C0008390C0008390C00082C
:1000A000390C0008390C0008390C0008390C00081C
:1000B000810A0008390C000800000000390C000813
:1000C000390C00080000000000000000390C000896
:1000D00000000000390C0008390C00080000000086
:1000E000390C0008390C0008390C00080000000029
:1000F0000000000000000000000000000000000000
:0C01000000000000000000005FF808F1A3
:10010C0010B5054C237833B9044B13B10448AFF345
:10011C0000800123237010BD74000020000000003B
:10012C008C2F000808B5034B1BB103490348AFF3F0
:10013C00008008BD00000000780000208C2F000813
:10014C0080B500AF0B4B1A780B4B1A7001210B4882
:10015C0001F05AF803461A46064B1A70064B1A78E9
:10016C00044B1B789A4203D1034B1A78044B1A7038
:10017C0000BF80BD0100002000000020000C0140E9
:10018C000200002080B400AF054B1B78002B0CBF85
:10019C0001230023DBB21846BD4680BC704700BF6C
:1001AC000200002080B500AF114B1B78002B02D051
:1001BC00012B09D019E0FFF7E5FF0346002B11D105
:1001CC000B4B01221A700DE0FFF7DCFF0346002BEE
:1001DC000AD0074B00221A7000220021054800F0BB
:1001EC00A7FA01E000BF00E000BF00BF80BD00BF68
:1001FC0003000020750B000880B582B000AF00F042
:10020C0017FD00F0ABF800F05BF900F0E3F800F03C
:10021C002DF9474801F0A0FC00F002FA0023FB7115
:10022C00002240F6B831434800F082FA0346FB71D5
:10023C00FB791A464049414802F028FA03469AB223
:10024C004FF47A733D493E4802F06EF841F658324D
:10025C004FF47A713B4800F06BFA0346FB71FB7963
:10026C001A463549354802F011FA03469AB24FF452
:10027C007A733249324802F057F841F2883240F62C
:10028C00B831314800F054FA0346FB71FB791A4639
:10029C0029492A4802F0FAF903469AB24FF47A73C4
:1002AC002649274802F040F84FF47A624FF4FA617D
:1002BC00264800F03DFA0346FB71FB791A461E49AD
:1002CC001E4802F0E3F903469AB24FF47A731B49C5
:1002DC001B4802F029F84FF4FA6200211C4800F088
:1002EC0027FA0346FB71FB791A461349134802F0AF
:1002FC00CDF903469AB24FF47A731049104802F0C4
:10030C0013F84FF47A7000F03BFC00F06BFAFFF737
:10031C0049FF104B1B78012BF7D14FF400710E489D
:10032C0000F0A1FF4FF47A7000F02AFCEDE700BF5B
:10033C00F80000200D0B0008A42F000890000020EE
:10034C0040010020210B0008350B0008490B000868
:10035C005D0B0008580200200008014080B590B0E9
:10036C0000AF07F1180328220021184602F086F985
:10037C003B1D00221A605A609A60DA601A610223EF
:10038C00BB610123BB621023FB6200237B6307F17B
:10039C001803184600F080FF0346002B01D000F034
:1003AC00F3F80F237B600023BB600023FB6000236A
:1003BC003B6100237B613B1D0021184601F0EEF9E7
:1003CC000346002B01D000F0DFF800BF4037BD46DC
:1003DC0080BD000080B586B000AF07F10803002295
:1003EC001A605A609A60DA603B4600221A605A60C2
:1003FC001D4B4FF080421A601B4B40F21F325A606B
:10040C00194B00229A60184B6322DA60164B0022BB
:10041C001A61154B00229A61134801F04DFB0346FB
:10042C00002B01D000F0B0F84FF48053BB6007F103
:10043C00080319460C4801F0E3FC0346002B01D0DD
:10044C0000F0A2F800233B6000237B603B4619467A
:10045C00054801F0AFFE0346002B01D000F094F8E4
:10046C0000BF1837BD4680BDF800002080B500AF36
:10047C00114B124A1A60104B4FF4E1325A600E4B7A
:10048C0000229A600C4B0022DA600B4B00221A619E
:10049C00094B0C225A61084B00229A61064B002230
:1004AC00DA61054801F0F0FE0346002B01D000F0A4
:1004BC006BF800BF80BD00BF40010020004400402D
:1004CC0080B586B000AF07F1080300221A605A60AD
:1004DC009A60DA601E4B9B691D4A43F004039361DA
:1004EC001B4B9B6903F004037B607B68184B9B6977
:1004FC00174A43F008039361154B9B6903F00803FB
:10050C003B603B6800224FF47C71124800F093FE74
:10051C004FF47C73BB600123FB6000233B6102231F
:10052C007B6107F1080319460A4800F0F1FC01232E
:10053C00BB600023FB6001233B6107F108031946F4
:10054C00054800F0E5FC00BF1837BD4680BD00BF74
:10055C000010024000080140000C014080B582B040
:10056C0000AF786000F072F8FFF7EAFD054B1B68EE
:10057C000133044A136000F01FFB00BF0837BD466F
:10058C0080BD00BFF400002080B400AF72B600BF85
:10059C00FEE7000080B485B000AF0346FB7100237A
:1005AC00FB73FA791D4913469B0013449B000B44C3
:1005BC001B68002B02D10123FB7301E00023FB73AA
:1005CC00FA79164913469B0013449B000B440022F6
:1005DC001A60FA79114913469B0013449B000B4493
:1005EC00043300221A60FA790C4913469B00134419
:1005FC009B000B44083300221A60FA790749134612
:10060C009B0013449B000B440C3300221A70FB7BA1
:10061C0018461437BD4680BC704700BF88010020C7
:10062C0080B582B000AF0023FB7106E0FB79184661
:10063C00FFF7B0FFFB790133FB71FB79092BF5D97F
:10064C0000BF00BF0837BD4680BD000080B483B03A
:10065C0000AF0023FB715FE0FA79344913469B002D
:10066C0013449B000B441B68002B52D0FA792F4982
:10067C0013469B0013449B000B4404331B68FA790C
:10068C00591E2A4813469B0013449B000344043311
:10069C001960FA79254913469B0013449B000B44BF
:1006AC0004331B68002B34DCFA79204913469B0079
:1006BC0013449B000B440C3393F90030DBB2013331
:1006CC00DBB2FA7958B2194913469B0013449B00CC
:1006DC000B440C3302461A70FA79144913469B00EA
:1006EC0013449B000B4408331B68002B11D0F97981
:1006FC00FA790E480B469B000B449B0003440833CD
:10070C0019680A4813469B0013449B0003440433A6
:10071C001960FB790133FB71FB79092B9CD900BF64
:10072C0000BF0C37BD4680BC704700BF880100205D
:10073C0080B487B000AFF860B9607A600023FB75B5
:10074C0002E0FB7D0133FB75FA7D244913469B00C7
:10075C0013449B000B441B68002B02D0FB7D092B20
:10076C00EFD9FB7D0A2B01D10A2331E0FA7D1B491D
:10077C0013469B0013449B000B44FA681A60BB6839
:10078C00174AA2FB0323DB08FA7D184613491346CC
:10079C009B0013449B000B44043318607B68104A85
:1007AC00A2FB0323DB08FA7D18460C4913469B0079
:1007BC0013449B000B4408331860FA7D0749134619
:1007CC009B0013449B000B440C3300221A70FB7DDE
:1007DC0018461C37BD4680BC704700BF88010020FE
:1007EC00CDCCCCCC90B585B002AF0023FB7166E0CC
:1007FC00FA79374913469B0013449B000B441B6842
:10080C00002B58D0FA79324913469B0013449B00B5
:10081C000B440C3393F90030002B4DDDFA792C4945
:10082C0013469B0013449B000B441B689847FA79B2
:10083C00274913469B0013449B000B440C3393F93C
:10084C000030DBB2013BDBB2FA7958B220491346D7
:10085C009B0013449B000B440C3302461A70FA792C
:10086C001B4913469B0013449B000B4408331B6825
:10087C00002B03D1FB791846FFF78CFEF979154B49
:10088C001868FA79124C13469B0013449B002344BE
:10089C000C3393F90030009303460A460E490F4877
:1008AC0001F0F4FE03469AB24FF47A730B490C48EC
:1008BC0001F03AFD00E000BFFB790133FB71FB79DD
:1008CC00092B95D900BF00BF0C37BD4690BD00BFAA
:1008DC0088010020F4000020B82F000890000020B0
:1008EC004001002080B485B000AF154B9B69144AC1
:1008FC0043F001039361124B9B6903F00103BB604E
:10090C00BB680F4BDB690E4A43F08053D3610C4B31
:10091C00DB6903F080537B607B680A4B5B68FB6090
:10092C00FB6823F0E063FB60FB6843F08063FB60D3
:10093C00044AFB68536000BF1437BD4680BC704747
:10094C00001002400000014080B584B000AF786018
:10095C007B681B68B3F1804F13D10C4BDB690B4ADE
:10096C0043F00103D361094BDB6903F00103FB6026
:10097C00FB68002200211C2000F093FA1C2000F0E0
:10098C00ACFA00BF1037BD4680BD00BF001002405E
:10099C0080B588B000AF786007F1100300221A60B0
:1009AC005A609A60DA607B681B681B4A93422FD1AD
:1009BC001A4BDB69194A43F40033D361174BDB69DB
:1009CC0003F40033FB60FB68144B9B69134A43F040
:1009DC0004039361114B9B6903F00403BB60BB6878
:1009EC0004233B6102237B610323FB6107F11003AA
:1009FC0019460B4800F08CFA08233B6100237B61FD
:100A0C000023BB6107F110031946054800F080FA7A
:100A1C0000BF2037BD4680BD00440040001002409E
:100A2C000008014080B400AFFEE780B400AFFEE7E1
:100A3C0080B400AFFEE780B400AFFEE780B400AF37
:100A4C00FEE780B400AF00BFBD4680BC704780B4E9
:100A5C0000AF00BFBD4680BC704780B400AF00BF84
:100A6C00BD4680BC704780B500AF00F027F900BFD1
:100A7C0080BD000080B500AF024801F0B9F800BF9E
:100A8C0080BD00BFF800002080B586B000AF786054
:100A9C00144A154BD31A7B617B693B61134B1B6862
:100AAC00002B02D1114B124A1A60104B1A687B684A
:100ABC0013443A699A4207D201F0B6FD03460C2260
:100ACC001A604FF0FF3309E0084B1B68FB60074BC3
:100ADC001A687B681344054A1360FB68184618377C
:100AEC00BD4680BD002800200004000050020020FC
:100AFC007002002080B400AF00BFBD4680BC7047C0
:100B0C0080B500AF1021024800F0ADFB00BF80BDE6
:100B1C000008014080B500AF2021024800F0A3FB83
:100B2C0000BF80BD0008014080B500AF40210248E5
:100B3C0000F099FB00BF80BD0008014080B500AFFC
:100B4C008021024800F08FFB00BF80BD00080140EF
:100B5C0080B500AF4FF48071024800F084FB00BFF9
:100B6C0080BD00BF0008014080B500AF4FF400719C
:100B7C00024800F078FB00BF80BD00BF00080140B8
:100B8C0080B483B000AF78607B68084A82FB0312A4
:100B9C009210DB17D31A064A1360064B00221A7008
:100BAC0000BF0C37BD4680BC704700BF67666666E9
:100BBC00540200205802002080B400AF074B1B6881
:100BCC00013B064A1360054B1B68002B02DC044BEF
:100BDC0001221A7000BFBD4680BC70475402002031
:100BEC0058020020FFF786FF0B480C490C4A0023E3
:100BFC0002E0D458C4500433C4188C42F9D3094AC7
:100C0C00094C002301E013600432A242FBD301F033
:100C1C0011FDFFF7F1FA704700000020740000206E
:100C2C004C3000087400002070020020FEE7000029
:100C3C0080B500AF084B1B68074A43F010031360E4
:100C4C00032000F023F90F2000F008F8FFF74AFE0C
:100C5C000023184680BD00BF0020024080B582B042
:100C6C0000AF7860124B1A68124B1B7819464FF480
:100C7C007A73B3FBF1F3B2FBF3F3184600F03BF9D4
:100C8C000346002B01D001230EE07B680F2B0AD802
:100C9C00002279684FF0FF3000F003F9064A7B68B8
:100CAC001360002300E0012318460837BD4680BDC1
:100CBC00040000200C0000200800002080B400AFCD
:100CCC00054B1B781A46054B1B681344034A1360EB
:100CDC0000BFBD4680BC70470C0000205C020020A9
:100CEC0080B400AF024B1B681846BD4680BC7047F1
:100CFC005C02002080B485B000AF78607B6803F0A4
:100D0C000703FB600C4BDB68BB60BA684FF6FF0354
:100D1C001340BB60FB681A02BB68134343F0BF630C
:100D2C0043F40033BB60044ABB68D36000BF143784
:100D3C00BD4680BC704700BF00ED00E080B400AF42
:100D4C00044BDB681B0A03F007031846BD4680BC46
:100D5C00704700BF00ED00E080B483B000AF0346E5
:100D6C00FB7197F90730002B0BDBFB7903F01F02AB
:100D7C00064997F907305B09012000FA02F241F8A5
:100D8C00232000BF0C37BD4680BC704700E100E05B
:100D9C0080B483B000AF03463960FB7197F907301C
:100DAC00002B0ADB3B68DAB20C4997F907301201C9
:100DBC00D2B20B4483F800230AE03B68DAB208494C
:100DCC00FB7903F00F03043B1201D2B20B441A76E9
:100DDC0000BF0C37BD4680BC704700BF00E100E08F
:100DEC0000ED00E080B489B000AFF860B9607A60C3
:100DFC00FB6803F00703FB61FB69C3F10703042BDA
:100E0C0028BF0423BB61FB690433062B02D9FB69A1
:100E1C00033B00E000237B614FF0FF32BB6902FA19
:100E2C0003F3DA43BB681A407B699A404FF0FF31F9
:100E3C007B6901FA03F3D9437B680B4013431846D3
:100E4C002437BD4680BC704780B582B000AF786057
:100E5C007B68013BB3F1807F01D301230FE00A4A89
:100E6C007B68013B53600F214FF0FF30FFF790FF81
:100E7C00054B00229A60044B07221A600023184687
:100E8C000837BD4680BD00BF10E000E080B582B0E1
:100E9C0000AF78607868FFF72DFF00BF0837BD46BC
:100EAC0080BD80B586B000AF0346B9607A60FB7335
:100EBC0000237B61FFF742FF78617A68B968786933
:100ECC00FFF790FF024697F90F3011461846FFF7CF
:100EDC005FFF00BF1837BD4680BD80B582B000AF44
:100EEC000346FB7197F907301846FFF735FF00BF33
:100EFC000837BD4680BD80B582B000AF7860786899
:100F0C00FFF7A2FF034618460837BD4680BD000018
:100F1C0080B48BB000AF7860396000237B62002313
:100F2C003B6261E101227B6A02FA03F3FB613B68DD
:100F3C001B68FA691340BB61BA69FB699A4240F0BD
:100F4C0050813B685B68974A93425ED0954A9342C6
:100F5C0075D8954A934258D0934A93426FD8934A86
:100F6C00934252D0914A934269D8914A93424CD0C1
:100F7C008F4A934263D88F4A934246D08D4A93420C
:100F8C005DD8122B2AD8122B59D801A252F823F073
:100F9C0017100008F10F0008031000084510000896
:100FAC004B1000084B1000084B1000084B100008A9
:100FBC004B1000084B1000084B1000084B10000899
:100FCC004B1000084B1000084B1000084B10000889
:100FDC004B100008F90F00080D100008764A9342D8
:100FEC0013D02CE03B68DB683B6229E03B68DB6894
:100FFC0004333B6224E03B68DB6808333B621FE050
:10100C003B68DB680C333B621AE03B689B68002B47
:10101C0002D104233B6213E03B689B68012B05D192
:10102C0008233B627B68FA691A6109E008233B627A
:10103C007B68FA695A6103E000233B6200E000BF61
:10104C00BB69FF2B01D87B6801E07B6804337B61B3
:10105C00BB69FF2B02D87B6A9B0002E07B6A083BD2
:10106C009B003B617B691A680F213B6901FA03F312
:10107C00DB431A40396A3B6901FA03F31A437B6973
:10108C001A603B685B6803F08053002B00F0A9806A
:10109C004A4B9B69494A43F001039361474B9B6957
:1010AC0003F00103BB60BB68454A7B6A9B080233B3
:1010BC0052F82330FB607B6A03F003039B000F2282
:1010CC0002FA03F3DB43FA681340FB607B683D4A8A
:1010DC0093420DD07B683C4A934207D07B683B4AD5
:1010EC00934201D1022304E0032302E0012300E038
:1010FC0000237A6A02F0030292009340FA681343C9
:10110C00FB602F497B6A9B080233FA6841F8232065
:10111C003B685B6803F48013002B06D02C4B9A6859
:10112C002B49BB6913438B6006E0294B9A68BB695A
:10113C00DB43274913408B603B685B6803F4001367
:10114C00002B06D0224BDA682149BB691343CB60D4
:10115C0006E01F4BDA68BB69DB431D491340CB60CB
:10116C003B685B6803F40033002B06D0184B5A68BD
:10117C001749BB6913434B6006E0154B5A68BB69B2
:10118C00DB43134913404B603B685B6803F48033CB
:10119C00002B1FD00E4B1A680D49BB6913430B6013
:1011AC001FE000BF000032100000311000002210C0
:1011BC00000021100000121000001110001002405D
:1011CC000000014000080140000C014000100140EB
:1011DC00000401400B4B1A68BB69DB4309491340FF
:1011EC000B607B6A01337B623B681A687B6A22FA6C
:1011FC0003F3002B7FF496AE00BF00BF2C37BD4627
:10120C0080BC70470004014080B485B000AF7860AA
:10121C000B467B807B689A687B881340002B02D03E
:10122C000123FB7301E00023FB73FB7B184614378F
:10123C00BD4680BC704780B483B000AF78600B466D
:10124C007B8013467B707B78002B03D07A887B687D
:10125C001A6103E07B881A047B681A6100BF0C37A3
:10126C00BD4680BC704780B485B000AF78600B463B
:10127C007B807B68DB68FB607A88FB6813401A0410
:10128C00FB68D9437B880B401A437B681A6100BF0B
:10129C001437BD4680BC704780B586B000AF78600F
:1012AC007B68002B01D1012372E27B681B6803F081
:1012BC000103002B00F08780924B5B6803F00C035A
:1012CC00042B0CD08F4B5B6803F00C03082B12D152
:1012DC008C4B5B6803F48033B3F5803F0BD1894BA7
:1012EC001B6803F40033002B6CD07B685B68002B0D
:1012FC0068D101234CE27B685B68B3F5803F06D173
:10130C00804B1B687F4A43F4803313602EE07B686C
:10131C005B68002B0CD17B4B1B687A4A23F480331F
:10132C001360784B1B68774A23F4802313601DE00D
:10133C007B685B68B3F5A02F0CD1724B1B68714AAC
:10134C0043F4802313606F4B1B686E4A43F4803365
:10135C0013600BE06B4B1B686A4A23F480331360F9
:10136C00684B1B68674A23F4802313607B685B68B7
:10137C00002B13D0FFF7B4FC386108E0FFF7B0FC8A
:10138C0002463B69D31A642B01D9032300E25D4B5F
:10139C001B6803F40033002BF0D014E0FFF7A0FC23
:1013AC00386108E0FFF79CFC02463B69D31A642BBA
:1013BC0001D90323ECE1534B1B6803F40033002BDE
:1013CC00F0D100E000BF7B681B6803F00203002B28
:1013DC0063D04C4B5B6803F00C03002B0BD0494BD8
:1013EC005B6803F00C03082B1CD1464B5B6803F4C1
:1013FC008033002B16D1434B1B6803F00203002BE8
:10140C0005D07B681B69012B01D00123C0E13D4B4A
:10141C001B6823F0F8027B685B69DB0039491343D6
:10142C000B603AE07B681B69002B20D0364B012205
:10143C001A60FFF755FC386108E0FFF751FC0246D3
:10144C003B69D31A022B01D90323A1E12D4B1B6855
:10145C0003F00203002BF0D02A4B1B6823F0F80298
:10146C007B685B69DB00274913430B6015E0264B57
:10147C0000221A60FFF734FC386108E0FFF730FCFB
:10148C0002463B69D31A022B01D9032380E11D4B81
:10149C001B6803F00203002BF0D17B681B6803F080
:1014AC000803002B3AD07B689B69002B19D0174B93
:1014BC0001221A60FFF714FC386108E0FFF710FCFA
:1014CC0002463B69D31A022B01D9032360E10D4B71
:1014DC005B6A03F00203002BF0D0012000F0CEFA7F
:1014EC001CE00A4B00221A60FFF7FAFB38610FE090
:1014FC00FFF7F6FB02463B69D31A022B08D90323EC
:10150C0046E100BF0010024000004242800442420B
:10151C00924B5B6A03F00203002BE9D17B681B68DA
:10152C0003F00403002B00F0A6800023FB758B4B0B
:10153C00DB6903F08053002B0DD1884BDB69874AA4
:10154C0043F08053D361854BDB6903F08053BB6060
:10155C00BB680123FB75824B1B6803F48073002B63
:10156C0018D17F4B1B687E4A43F480731360FFF7DE
:10157C00B7FB386108E0FFF7B3FB02463B69D31AAF
:10158C00642B01D9032303E1754B1B6803F48073AF
:10159C00002BF0D07B68DB68012B06D16F4B1B6AEC
:1015AC006E4A43F0010313622DE07B68DB68002B6D
:1015BC000CD16A4B1B6A694A23F001031362674B17
:1015CC001B6A664A23F0040313621CE07B68DB6829
:1015DC00052B0CD1614B1B6A604A43F00403136268
:1015EC005E4B1B6A5D4A43F0010313620BE05B4BDD
:1015FC001B6A5A4A23F001031362584B1B6A574A61
:10160C0023F0040313627B68DB68002B15D0FFF713
:10161C0067FB38610AE0FFF763FB02463B69D31AAC
:10162C0041F28832934201D90323B1E04B4B1B6A40
:10163C0003F00203002BEED014E0FFF751FB3861EE
:10164C000AE0FFF74DFB02463B69D31A41F28832A0
:10165C00934201D903239BE0404B1B6A03F0020326
:10166C00002BEED1FB7D012B05D13C4BDB693B4ABA
:10167C0023F08053D3617B68DB69002B00F08780FB
:10168C00364B5B6803F00C03082B61D07B68DB697D
:10169C00022B46D1334B00221A60FFF721FB386135
:1016AC0008E0FFF71DFB02463B69D31A022B01D958
:1016BC0003236DE0294B1B6803F00073002BF0D162
:1016CC007B681B6AB3F5803F08D1244B5B6823F41D
:1016DC0000327B689B68214913434B601F4B5B684E
:1016EC0023F474127B68196A7B685B6A0B431B4991
:1016FC0013434B601B4B01221A60FFF7F1FA386160
:10170C0008E0FFF7EDFA02463B69D31A022B01D928
:10171C0003233DE0114B1B6803F00073002BF0D04A
:10172C0035E0104B00221A60FFF7DAFA386108E056
:10173C00FFF7D6FA02463B69D31A022B01D90323D1
:10174C0026E0064B1B6803F00073002BF0D11EE063
:10175C007B68DB69012B07D1012319E000100240E3
:10176C0000700040600042420B4B5B68FB60FB6802
:10177C0003F480327B681B6A9A4206D1FB6803F43F
:10178C0070127B685B6A9A4201D0012300E000234F
:10179C0018461837BD4680BD0010024080B584B095
:1017AC0000AF786039607B68002B01D10123D0E059
:1017BC006A4B1B6803F007033A689A4210D9674BCF
:1017CC001B6823F0070265493B6813430B60634BAE
:1017DC001B6803F007033A689A4201D00123B8E072
:1017EC007B681B6803F00203002B20D07B681B680E
:1017FC0003F00403002B05D0594B5B68584A43F4A3
:10180C00E06353607B681B6803F00803002B05D072
:10181C00534B5B68524A43F460535360504B5B68C4
:10182C0023F0F0027B689B684D4913434B607B6847
:10183C001B6803F00103002B40D07B685B68012B15
:10184C0007D1474B1B6803F40033002B15D1012340
:10185C007FE07B685B68022B07D1414B1B6803F070
:10186C000073002B09D1012373E03D4B1B6803F07F
:10187C000203002B01D101236BE0394B5B6823F091
:10188C0003027B685B68364913434B60FFF728FA09
:10189C00F8600AE0FFF724FA0246FB68D31A41F21B
:1018AC008832934201D9032353E02D4B5B6803F03C
:1018BC000C027B685B689B009A42EBD1274B1B6840
:1018CC0003F007033A689A4210D2244B1B6823F0AA
:1018DC00070222493B6813430B60204B1B6803F043
:1018EC0007033A689A4201D0012332E07B681B68F7
:1018FC0003F00403002B08D0194B5B6823F4E0625F
:10190C007B68DB68164913434B607B681B6803F0EC
:10191C000803002B09D0124B5B6823F460527B68E0
:10192C001B69DB000E4913434B6000F021F80246A3
:10193C000B4B5B681B0903F00F030A49CB5C22FAC3
:10194C0003F3094A1360094B1B681846FFF786F925
:10195C00002318461037BD4680BD00BF0020024052
:10196C0000100240E42F00080400002008000020B2
:10197C0080B487B000AF0023FB600023BB60002362
:10198C007B6100237B6000233B611E4B5B68FB602B
:10199C00FB6803F00C03042B02D0082B03D027E0C8
:1019AC00194B3B6127E0FB689B0C03F00F03174AB4
:1019BC00D35C7B60FB6803F48033002B10D0114B9D
:1019CC005B685B0C03F00103114AD35CBB607B6862
:1019DC000D4A03FB02F2BB68B2FBF3F37B6104E03C
:1019EC007B680C4A02FB03F37B617B693B6102E081
:1019FC00054B3B6100BF3B6918461C37BD4680BC9C
:101A0C00704700BF0010024000127A00FC2F000843
:101A1C000C30000800093D0080B400AF024B1B687D
:101A2C001846BD4680BC70470400002080B500AF4E
:101A3C00FFF7F2FF0246054B5B681B0A03F0070336
:101A4C000349CB5C22FA03F3184680BD0010024018
:101A5C00F42F000880B500AFFFF7DEFF0246054B00
:101A6C005B68DB0A03F007030349CB5C22FA03F340
:101A7C00184680BD00100240F42F000880B485B0D9
:101A8C0000AF78600A4B1B680A4AA2FB03235B0A6F
:101A9C007A6802FB03F3FB6000BFFB685A1EFA6016
:101AAC00002BF9D100BF00BF1437BD4680BC704776
:101ABC0004000020D34D621080B582B000AF786076
:101ACC007B68002B01D1012341E07B6893F83D300A
:101ADC00DBB2002B06D17B68002283F83C207868AF
:101AEC00FEF732FF7B68022283F83D207B681A6880
:101AFC007B6804331946104600F06EFA7B680122AD
:101B0C0083F846207B68012283F83E207B68012203
:101B1C0083F83F207B68012283F840207B680122F8
:101B2C0083F841207B68012283F842207B680122E4
:101B3C0083F843207B68012283F844207B680122D0
:101B4C0083F845207B68012283F83D20002318464A
:101B5C000837BD4680BD000080B485B000AF78600A
:101B6C007B6893F83D30DBB2012B01D0012335E0CB
:101B7C007B68022283F83D207B681B68DA687B68EF
:101B8C001B6842F00102DA607B681B68164A9342BC
:101B9C0009D07B681B68B3F1804F04D07B681B684D
:101BAC00124A934211D17B681B689B6803F00703B0
:101BBC00FB60FB68062B10D07B681B681A687B687F
:101BCC001B6842F001021A6007E07B681B681A6808
:101BDC007B681B6842F001021A6000231846143718
:101BEC00BD4680BC704700BF002C01400004004083
:101BFC0080B582B000AF78607B681B681B6903F00E
:101C0C000203022B22D17B681B68DB6803F0020302
:101C1C00022B1BD17B681B686FF002021A617B6878
:101C2C0001221A777B681B689B6903F00303002B66
:101C3C0003D0786800F0B4F905E0786800F0A7F9F3
:101C4C00786800F0B6F97B6800221A777B681B680D
:101C5C001B6903F00403042B22D17B681B68DB682F
:101C6C0003F00403042B1BD17B681B686FF0040288
:101C7C001A617B6802221A777B681B689B6903F4E4
:101C8C004073002B03D0786800F08AF905E078687F
:101C9C0000F07DF9786800F08CF97B6800221A77E7
:101CAC007B681B681B6903F00803082B22D17B6837
:101CBC001B68DB6803F00803082B1BD17B681B68CF
:101CCC006FF008021A617B6804221A777B681B6824
:101CDC00DB6903F00303002B03D0786800F060F994
:101CEC0005E0786800F053F9786800F062F97B68D9
:101CFC0000221A777B681B681B6903F01003102BFA
:101D0C0022D17B681B68DB6803F01003102B1BD1FE
:101D1C007B681B686FF010021A617B6808221A77C7
:101D2C007B681B68DB6903F44073002B03D0786875
:101D3C0000F036F905E0786800F029F9786800F0D1
:101D4C0038F97B6800221A777B681B681B6903F0E3
:101D5C000103012B0ED17B681B68DB6803F00103C8
:101D6C00012B07D17B681B686FF001021A61786840
:101D7C00FEF7F4FB7B681B681B6903F08003802B68
:101D8C000ED17B681B68DB6803F08003802B07D1C6
:101D9C007B681B686FF080021A61786800F06BFA40
:101DAC007B681B681B6903F04003402B0ED17B68DA
:101DBC001B68DB6803F04003402B07D17B681B6872
:101DCC006FF040021A61786800F0FCF87B681B68C1
:101DDC001B6903F02003202B0ED17B681B68DB688A
:101DEC0003F02003202B07D17B681B686FF02002C7
:101DFC001A61786800F036FA00BF0837BD4680BD1E
:101E0C0080B584B000AF786039600023FB737B68C9
:101E1C0093F83C30012B01D10223B4E07B68012202
:101E2C0083F83C207B68022283F83D207B681B688A
:101E3C009B68BB60BB6823F07703BB60BB6823F473
:101E4C007F43BB607B681B68BA689A603B681B6801
:101E5C00B3F5005F3ED0B3F5005F00F28780B3F5B9
:101E6C00805F00F08680B3F5805F7FD8702B1AD02E
:101E7C00702B7BD8602B50D0602B77D8502B3CD05C
:101E8C00502B73D8402B58D0402B6FD8302B64D0AC
:101E9C00302B6BD8202B60D0202B67D8002B5CD03C
:101EAC00102B5AD062E07B6818683B6899683B68D5
:101EBC005A683B68DB6800F05EF97B681B689B68BE
:101ECC00BB60BB6843F07703BB607B681B68BA6878
:101EDC009A604FE07B6818683B6899683B685A6861
:101EEC003B68DB6800F047F97B681B689A687B6885
:101EFC001B6842F480429A603CE07B6818683B683F
:101F0C0059683B68DB681A4600F0BEF87B681B68B2
:101F1C005021184600F015F92CE07B6818683B68D6
:101F2C0059683B68DB681A4600F0DCF87B681B6874
:101F3C006021184600F005F91CE07B6818683B68C6
:101F4C0059683B68DB681A4600F09EF87B681B6892
:101F5C004021184600F0F5F80CE07B681A683B68E5
:101F6C001B681946104600F0ECF803E00123FB73E4
:101F7C0000E000BF7B68012283F83D207B680022D3
:101F8C0083F83C20FB7B18461037BD4680BD80B4DF
:101F9C0083B000AF786000BF0C37BD4680BC704783
:101FAC0080B483B000AF786000BF0C37BD4680BCF6
:101FBC00704780B483B000AF786000BF0C37BD466B
:101FCC0080BC704780B483B000AF786000BF0C3722
:101FDC00BD4680BC7047000080B485B000AF78600F
:101FEC0039607B681B68FB607B68254A934207D08D
:101FFC007B68B3F1804F03D07B68224A934208D1AF
:10200C00FB6823F07003FB603B685B68FA68134362
:10201C00FB607B681A4A934207D07B68B3F1804F10
:10202C0003D07B68174A934208D1FB6823F44073B2
:10203C00FB603B68DB68FA681343FB60FB6823F0CA
:10204C0080023B685B691343FB607B68FA681A602B
:10205C003B689A687B68DA623B681A687B689A62AC
:10206C007B68074A934203D13B681A697B681A6301
:10207C007B6801225A6100BF1437BD4680BC704793
:10208C00002C01400004004080B487B000AFF86021
:10209C00B9607A60FB681B6A7B61FB681B6A23F082
:1020AC000102FB681A62FB689B693B613B6923F088
:1020BC00F0033B617B681B013A6913433B617B690D
:1020CC0023F00A037B617A69BB6813437B61FB686D
:1020DC003A699A61FB687A691A6200BF1C37BD467F
:1020EC0080BC704780B487B000AFF860B9607A608C
:1020FC00FB681B6A7B61FB681B6A23F01002FB68A0
:10210C001A62FB689B693B613B6923F470433B613A
:10211C007B681B033A6913433B617B6923F0A00383
:10212C007B61BB681B017A6913437B61FB683A696D
:10213C009A61FB687A691A6200BF1C37BD4680BC85
:10214C00704780B485B000AF786039607B689B685D
:10215C00FB60FB6823F07003FB603A68FB68134379
:10216C0043F00703FB607B68FA689A6000BF143782
:10217C00BD4680BC704780B487B000AFF860B960D2
:10218C007A603B60FB689B687B617B6923F47F43CF
:10219C007B613B681A027B681A43BB6813437A69FC
:1021AC0013437B61FB687A699A6000BF1C37BD469C
:1021BC0080BC704780B485B000AF786039607B68B4
:1021CC0093F83C30012B01D1022341E07B680122C2
:1021DC0083F83C207B68022283F83D207B681B68D7
:1021EC005B68FB607B681B689B68BB60FB6823F0CB
:1021FC007003FB603B681B68FA681343FB607B68E9
:10220C001B68FA685A607B681B68144A934209D0B1
:10221C007B681B68B3F1804F04D07B681B68104A45
:10222C0093420CD1BB6823F08003BB603B685B68B6
:10223C00BA681343BB607B681B68BA689A607B689A
:10224C00012283F83D207B68002283F83C20002388
:10225C0018461437BD4680BC704700BF002C0140A7
:10226C000004004080B483B000AF786000BF0C372E
:10227C00BD4680BC704780B483B000AF786000BFAF
:10228C000C37BD4680BC704780B582B000AF78601B
:10229C007B68002B01D1012342E07B6893F841302D
:1022AC00DBB2002B06D17B68002283F840207868D3
:1022BC00FEF76EFB7B68242283F841207B681B6849
:1022CC00DA687B681B6822F40052DA60786800F0E8
:1022DC001DF97B681B681A697B681B6822F49042A5
:1022EC001A617B681B685A697B681B6822F02A029A
:1022FC005A617B681B68DA687B681B6842F4005281
:10230C00DA607B6800225A647B68202283F84120C3
:10231C007B68202283F842207B6800225A630023CA
:10232C0018460837BD4680BD80B58AB002AFF8604C
:10233C00B9603B601346FB8000237B61FB6893F81C
:10234C004130DBB2202B6DD1BB68002B02D0FB8857
:10235C00002B01D1012366E0FB6800225A64FB6864
:10236C00212283F84120FEF7BBFC7861FB68FA88D8
:10237C009A84FB68FA88DA84FB689B68B3F5805F03
:10238C0008D1FB681B69002B04D10023FB61BB68DF
:10239C00BB6103E0BB68FB610023BB612AE03B68C7
:1023AC0000937B6900228021F86800F040F8034616
:1023BC00002B01D0032336E0FB69002B0BD1BB694A
:1023CC001B881A46FB681B68C2F308025A60BB697B
:1023DC000233BB6107E0FB691A78FB681B685A6023
:1023EC00FB690133FB61FB68DB8C9BB2013B9AB24E
:1023FC00FB68DA84FB68DB8C9BB2002BCFD13B688B
:10240C0000937B6900224021F86800F010F8034625
:10241C00002B01D0032306E0FB68202283F8412027
:10242C00002300E0022318462037BD4680BD80B54E
:10243C0090B000AFF860B9603B601346FB7150E0A0
:10244C00BB6CB3F1FF3F4CD0BB6C002B07D0FEF73D
:10245C0047FC02463B68D31ABA6C9A4241D2FB68DD
:10246C001B680C33BB62BB6A53E8003F7B627B6A20
:10247C0023F4D073FB63FB681B680C33FA6B7A6331
:10248C003B63396B7A6B41E80023FB62FB6A002BE0
:10249C00E5D1FB681B6814337B617B6953E8003F13
:1024AC003B613B6923F00103BB63FB681B6814337E
:1024BC00BA6B3A62FB61F9693A6A41E80023BB6185
:1024CC00BB69002BE5D1FB68202283F84120FB6817
:1024DC00202283F84220FB68002283F8402003234B
:1024EC000FE0FB681B681A68BB681340BA689A4215
:1024FC000CBF01230023DBB21A46FB799A429FD012
:10250C00002318464037BD4680BD000080B584B01E
:10251C0000AF78607B681B681B6923F440517B68B3
:10252C00DA687B681B680A431A617B689A687B6867
:10253C001B691A437B685B691343BB607B681B6830
:10254C00DB6823F4B05323F00C037A681268B96883
:10255C000B43D3607B681B685B6923F440717B6819
:10256C009A697B681B680A435A617B681B682C4A12
:10257C00934203D1FFF76EFAF86002E0FFF756FAC8
:10258C00F860FA6813469B0013449A001A447B685F
:10259C005B689B00B2FBF3F3224AA2FB03235B09AB
:1025AC001901FA6813469B0013449A001A447B687D
:1025BC005B689B00B2FBF3F21A4BA3FB02035B09B3
:1025CC00642000FB03F3D31A1B013233154AA2FB20
:1025DC0003235B0903F0F0031944FA6813469B00CC
:1025EC0013449A001A447B685B689B00B2FBF3F2BD
:1025FC000C4BA3FB02035B09642000FB03F3D31A0F
:10260C001B013233074AA2FB03235B0903F00F02C1
:10261C007B681B680A449A6000BF1037BD4680BDBA
:10262C00003801401F85EB51014B1868704700BF03
:10263C001000002070B500260C4D0D4C641BA4102E
:10264C00A64209D100F09CFC00260A4D0A4C641BE2
:10265C00A410A64205D170BD55F8043B984701362D
:10266C00EEE755F8043B98470136F2E74430000892
:10267C004430000844300008483000080346024447
:10268C00934200D1704703F8011BF9E70EB46FF0C9
:10269C00004100B59CB01DAB0290069007910491CF
:1026AC000848094953F8042B0591006802A90193C5
:1026BC0000F068F80022029B1A701CB05DF804EB65
:1026CC0003B07047100000200802FFFF2DE9F0470F
:1026DC008E6882469E420C4690461F4638D88A89A0
:1026EC0012F4906F32D0256809690133A5EB01090A
:1026FC0065694B4405EB450505EBD5756D109D42A1
:10270C0038BF1D46530531D5294600F06FFB0646F0
:10271C0050B90C234FF0FF30CAF80030A38943F0B6
:10272C004003A381BDE8F0874A46216900F0CEFA48
:10273C00A38923F4906343F08003A38126614E4464
:10274C0026603E466561A5EB0905A560BE4200D931
:10275C003E4632464146206800F0C6FAA368002087
:10276C009B1BA360236833442360DBE72A4600F0FD
:10277C00B1FB06460028E1D15046216900F0CEFAA3
:10278C00C7E700002DE9F04F98468B8907461B06DA
:10279C000D4614469DB00ED50B6963B9402100F06F
:1027AC0025FB2860286120B90C233B604FF0FF30DB
:1027BC00D1E040236B610023099320238DF829304D
:1027CC0030234FF00109CDF80C80DFF8A4818DF88F
:1027DC002A3023469A4613F8012B0AB1252AF9D13F
:1027EC00BAEB040B0BD05B46224629463846FFF762
:1027FC006DFF013000F0AA80099A5A4409929AF8A8
:10280C000030002B00F0A28000234FF0FF32CDE906
:10281C0005230AF1010A049307938DF853301A9398
:10282C005446052214F8011B514800F041FA049A51
:10283C00D8B9D00644BF20238DF85330110744BFBC
:10284C002B238DF853309AF800302A2B15D0544690
:10285C0000204FF00A0C079A214611F8013B303B3F
:10286C00092B4ED9B0B1079214E0A0EB080309FA7A
:10287C0003F31343A2460493D2E7039B191D1B6871
:10288C000391002BBBBF5B4242F0020207930793FC
:10289C00B8BF049223782E2B0CD163782A2B35D118
:1028AC00039B02341A1D1B680392002BB8BF4FF018
:1028BC00FF330593DFF8BCA003225046217800F0CB
:1028CC00F7F940B14023A0EB0A0003FA00F0049B97
:1028DC0001340343049314F8011B062226488DF897
:1028EC00281000F0E5F9002838D0244B1BBB039BC3
:1028FC00073323F0070308330393099B33440993ED
:10290C0067E70C4601200CFB0232A5E700234FF0D1
:10291C000A0C194601340593204610F8012B303A65
:10292C00092A03D9002BC5D00591C3E7044601231E
:10293C000CFB0121F0E703AB00932A463846104B01
:10294C0004A9AFF30080421C0646D6D1AB895B06C6
:10295C003FF52CAF09981DB0BDE8F08F03AB009389
:10296C002A463846064B04A900F07CF8EBE700BF7A
:10297C000E30000814300008183000080000000069
:10298C00D92600082DE9F047164699468A680B6946
:10299C0007469342B8BF1346336091F843200C4668
:1029AC00DDF820800AB1013333602368990642BFF9
:1029BC00336802333360256815F0060506D104F13F
:1029CC00190AE36832689B1AAB4228DC94F843205E
:1029DC00131E226818BF012392062DD4494638468F
:1029EC0004F14302C047013020D02368E56803F0AE
:1029FC000603042B18BF002532684FF00006A368AD
:102A0C0008BFAD1A226908BF25EAE5759342C4BF19
:102A1C009B1AED181A34B5421AD1002008E0012394
:102A2C00524649463846C047013003D14FF0FF307B
:102A3C00BDE8F0870135C4E73020E11881F8430088
:102A4C005A1C94F845102244023382F84310C5E70F
:102A5C000123224649463846C0470130E6D00136AC
:102A6C00D9E700002DE9FF470F7E9146782F80466D
:102A7C000C469A460C9D01F1430207D8622F0AD8E6
:102A8C00002F00F0D980582F00F0A48004F14205EB
:102A9C0084F842703AE0A7F16303152BF6D801A134
:102AAC0051F823F0092B00081D2B0008992A000867
:102ABC00992A0008992A0008992A00081D2B000859
:102ACC00992A0008992A0008992A0008992A0008CE
:102ADC002B2C00084D2B00080D2C0008992A0008FF
:102AEC00992A00084D2C0008992A00084D2B000843
:102AFC00992A0008992A0008152C00082B681A1D21
:102B0C001B682A6004F1420584F842300123A4E0DA
:102B1C0020682968060601F104030AD50E682B60AB
:102B2C00002E03DA2D23764284F843300A235E48C4
:102B3C0019E00E6810F0400F2B6018BF36B2EFE7AB
:102B4C002B682068191D2960010601D51E6802E05A
:102B5C004606FBD51E886F2F0CBF08230A2352484C
:102B6C00002184F843106568002DA8BF2168A5607A
:102B7C00A4BF21F0040121600EB9002D4DD01546E3
:102B8C00B6FBF3F103FB1167C75D05F8017D374612
:102B9C00BB420E46F4D9082B0BD12368DE0708D5AF
:102BAC00236961689942DEBF302305F8013C05F1C9
:102BBC00FF35521B22614B4621464046CDF800A002
:102BCC0003AAFFF7DFFE01304CD14FF0FF3004B009
:102BDC00BDE8F087344881F845702968236851F8BE
:102BEC00046B29601D0614D5DF0744BF43F0200396
:102BFC0023601EB9236823F0200323601023AFE762
:102C0C00236843F0200323607823284884F8453058
:102C1C00E3E7590648BFB6B2E6E71546BBE72B68B3
:102C2C002668181D6169286035061B6801D5196076
:102C3C0002E07006FBD51980002315462361BAE724
:102C4C002B6800211A1D2A601D686268284600F056
:102C5C002FF808B1401B606063682361002384F87F
:102C6C004330A8E72A46494640462369D0470130FD
:102C7C00ABD023689B0713D4E068039B9842B8BF82
:102C8C001846A4E70123324649464046D047013056
:102C9C009BD00135E36803995B1AAB42F2DCEBE79E
:102CAC00002504F11906F5E71F3000083030000844
:102CBC00034610B5C9B202449342184601D1002014
:102CCC0003E0047801338C42F6D110BD0A449142E2
:102CDC0000F1FF3300D1704710B511F8014B914250
:102CEC0003F8014FF9D110BD884210B501EB020475
:102CFC0002D98442234607D8431EA14208D011F8BA
:102D0C00012B03F8012FF8E7014602448A4200D157
:102D1C0010BD13F8014D02F8014DF7E738B5054623
:102D2C00002940D051F8043C0C1F002BB8BFE4180C
:102D3C0000F010F91C4A136833B96360146028461C
:102D4C00BDE8384000F00CB9A34208D9206821181E
:102D5C008B4201BF19685B6809182160EDE71A46C0
:102D6C005B680BB1A342FAD911685018A0420BD181
:102D7C0020680144501883421160E0D118685B68E8
:102D8C00014411605360DAE702D90C232B60D6E7BB
:102D9C00206821188B4201BF19685B6809182160F3
:102DAC0063605460CBE738BD6002002070B50E4EF6
:102DBC000C463168054611B900F0BCF8306021466C
:102DCC00284600F0B7F8431C0AD0C41C24F00304B6
:102DDC00A04207D0211A284600F0ACF8013001D1EE
:102DEC004FF0FF34204670BD640200202DE9F04105
:102DFC00CD1C25F0030508350C2D38BF0C25002DF6
:102E0C00074601DBA94205D90C2300263B6030465E
:102E1C00BDE8F0812E4E00F09DF833681C4634BBA3
:102E2C0029463846FFF7C2FF431C04464DD134688F
:102E3C002646002E40D123683146384604EB030861
:102E4C0000F078F880453AD1216803356D1A25F0E9
:102E5C00030508350C2D38BF0C2538462946FFF7DD
:102E6C00A5FF01302BD023682B4423600EE0226891
:102E7C00521B1ED40B2A16D96119A342256018BF08
:102E8C005960636808BF316062514B60384604F189
:102E9C000B0600F065F826F00706231DF21AB6D0D3
:102EAC009B1BA350B3E76268A3420CBF32605A600D
:102EBC00ECE723466468B2E734467668B9E70C233E
:102ECC0038463B6000F04CF8A1E72560DEE700BF18
:102EDC00600200202DE9F041804614460E4621B9CF
:102EEC001146BDE8F041FFF781BF2AB9FFF716FF85
:102EFC0025462846BDE8F08100F038F884420746A4
:102F0C0002D8B4EB500F12D821464046FFF76EFFA3
:102F1C0005460028EDD0BC422246314628BF3A4631
:102F2C00FFF7D4FE31464046FFF7F8FEE1E73546A1
:102F3C00DFE7000038B50023054D044608462B603A
:102F4C00FDF7A2FD431C02D12B6803B1236038BDF1
:102F5C0068020020014800F011B800BF6C0200208C
:102F6C00014800F00CB800BF6C02002051F8043C82
:102F7C00181F002BBCBF0B58C01870477047704708
:102F8C00F8B500BFF8BC08BC9E467047F8B500BF4A
:082F9C00F8BC08BC9E4670471A
:102FA4005461736B202564206973206164646564D3
:102FB4000D0A00005461736B20256420697320643A
:102FC4006973706174636865642061742025643A70
:102FD4002052756E6D65203D2025640D0A000000A9
:102FE40000000000000000000102030406070809B5
:102FF4000000000001020304020304050607080997
:103004000A0B0C0D0E0F10100102232D302B200083
:10301400686C4C006566674546470030313233348E
:10302400353637383941424344454600303132332E
:1030340034353637383961626364656600000000F0
:04304400310100084E
:043048000D0100086E
:10304C00010101010024F400100000000100000047
:10305C001400002000000000000000000000000030
:10306C000000000000000000000000000000000054
:10307C000000000000000000000000000000000044
:10308C000000000000000000000000000000000034
:10309C000000000000000000000000000000000024
:1030AC000000000000000000000000000000000014
:0430BC000000000010
:0400000508000BF1F3
:00000001FF
