:020000040800F2
:1000000000280020AD090008510900085709000820
:100010005D09000863090008690900080000000084
:100020000000000000000000000000006F09000850
:100030007B090008000000008709000893090008F8
:10004000F5090008F5090008F5090008F509000898
:10005000F5090008F5090008F5090008F509000888
:10006000F5090008F5090008F5090008F509000878
:10007000F5090008F5090008F5090008F509000868
:10008000F5090008F5090008F5090008F509000858
:10009000F5090008F5090008F5090008F509000848
:1000A000F5090008F5090008F5090008F509000838
:1000B000F5090008F509000800000000F50900082E
:1000C000F50900080000000000000000F509000824
:1000D00000000000F5090008F50900080000000014
:1000E000F5090008F5090008F509000800000000FE
:1000F0000000000000000000000000000000000000
:0C01000000000000000000005FF808F1A3
:10010C0010B5054C237833B9044B13B10448AFF345
:10011C0000800123237010BD0C00002000000000A3
:10012C000818000808B5034B1BB103490348AFF38B
:10013C00008008BD00000000100000200818000816
:10014C0080B58CB000AF00F051FC00F0A5F900F0C8
:10015C00DFF93223FB621A23BB6216237B62042372
:10016C003B620023FB771A23BB6116237B610423BC
:10017C003B610223FB731523BB6019237B600023B7
:10018C003B6000224FF48061AB4800F015FF012268
:10019C004FF48051A84800F00FFF00224FF400618B
:1001AC00A54800F009FF01224FF40051A24800F0CD
:1001BC0003FF00224FF400419F4800F0FDFE002297
:1001CC004FF480419C4800F0F7FE7B6A002B17DC53
:1001DC0000224FF48061984800F0EEFE00224FF4AC
:1001EC008051954800F0E8FE01224FF400619248DE
:1001FC0000F0E2FE16237B620123FB770323BB6036
:10020C003B6A002B17DC01224FF480618A4800F016
:10021C00D3FE00224FF48051874800F0CDFE00221F
:10022C004FF40061844800F0C7FE04233B620223B4
:10023C00FB771923BB60BB6A002B17DC00224FF441
:10024C0080617D4800F0B8FE01224FF480517A485D
:10025C0000F0B2FE00224FF40061774800F0ACFED3
:10026C001A23BB620023FB771523BB607B69002B31
:10027C0017DC00224FF400516F4800F09DFE002265
:10028C004FF400416C4800F097FE01224FF480417E
:10029C00694800F091FE15237B610123FB73032356
:1002AC007B603B69002B17DC01224FF40051624844
:1002BC0000F082FE00224FF400415F4800F07CFE0B
:1002CC0000224FF480415C4800F076FE03233B6132
:1002DC000223FB7319237B60BB69002B17DC002204
:1002EC004FF40051544800F067FE01224FF40041D6
:1002FC00514800F061FE00224FF480414E4800F05E
:10030C005BFE1923BB610023FB7315237B60FB6A27
:10031C00002B33DCFB7F022B0ED0022B10DC002BCE
:10032C0002D0012B04D00BE07B6A013B7B6207E01F
:10033C003B6A013B3B6203E0BB6A013BBB6200BF13
:10034C00FB7B022B0ED0022B10DC002B02D0012BDE
:10035C0004D00BE07B69013B7B6107E03B69013B0F
:10036C003B6103E0BB69013BBB6100BFBB68013B68
:10037C00BB607B68013B7B603223FB623B68032BD9
:10038C007ED801A252F823F0A5030008D703000879
:10039C00130400085104000800224FF400512748B0
:1003AC0000F00AFE01224FF48061244800F004FEA4
:1003BC00BB68234A82FB03129210DB17D31A184630
:1003CC0000F0FCF801233B605AE000224FF48061FE
:1003DC001A4800F0F1FD01224FF40061174800F0BB
:1003EC00EBFDBA68164B83FB02139910D317C91A8D
:1003FC000B469B000B445B00D11A084600F0DEF85C
:10040C0002233B603CE000224FF400610B4800F0FB
:10041C00D3FD01224FF48051084800F0CDFD7B68DC
:10042C00074A82FB03129210DB17D31A184600F00E
:10043C00C5F803233B6023E000080140000C014099
:10044C006766666600224FF48051114800F0B4FDD7
:10045C0001224FF400510E4800F0AEFD7A680D4BAE
:10046C0083FB02139910D317C91A0B469B000B443C
:10047C005B00D11A084600F0A1F800233B6000BFD6
:10048C00FB6A013BFB620A2000F012FB9DE600BFF9
:10049C00000C01406766666680B590B000AF07F14E
:1004AC00180328220021184601F0A0F93B1D002258
:1004BC001A605A609A60DA601A610223BB610123E8
:1004CC00BB621023FB6200237B6307F11803184601
:1004DC0000F08AFD0346002B01D000F0FBF90F233E
:1004EC007B600023BB600023FB6000233B61002387
:1004FC007B613B1D0021184600F0F8FF0346002BE2
:10050C0001D000F0E7F900BF4037BD4680BD0000C8
:10051C0080B586B000AF07F1080300221A605A605C
:10052C009A60DA60224B9B69214A43F0080393617D
:10053C001F4B9B6903F008037B607B681C4B9B691A
:10054C001B4A43F004039361194B9B6903F00403AA
:10055C003B603B68002243F67F41164800F02CFDBF
:10056C0000224FF47C41144800F026FD43F67F43F3
:10057C00BB600123FB6000233B6102237B6107F11D
:10058C00080319460B4800F09BFB4FF47C43BB60FF
:10059C000123FB6000233B6102237B6107F108030D
:1005AC001946054800F08CFB00BF1837BD4680BDCE
:1005BC0000100240000C01400008014080B582B0E0
:1005CC0000AF78607B68082B00F25A8101A252F8C8
:1005DC0023F000BF050600084D060008950600082C
:1005EC00DD060008250700086D070008B5070008A0
:1005FC00FD0700084508000800220121B44800F05E
:10060C00DBFC00220221B24800F0D6FC00220421BF
:10061C00AF4800F0D1FC00220821AD4800F0CCFC22
:10062C0000221021AA4800F0C7FC00222021A84873
:10063C0000F0C2FC01224021A54800F0BDFC43E1C2
:10064C0001220121A24800F0B7FC00220221A0489F
:10065C0000F0B2FC002204219D4800F0ADFC012208
:10066C0008219B4800F0A8FC01221021984800F0BA
:10067C00A3FC01222021964800F09EFC012240217F
:10068C00934800F099FC1FE100220121904800F0F2
:10069C0093FC002202218E4800F08EFC01220421E2
:1006AC008B4800F089FC00220821894800F084FC6A
:1006BC0000221021864800F07FFC01222021844872
:1006CC0000F07AFC00224021814800F075FCFBE030
:1006DC00002201217E4800F06FFC002202217C48A0
:1006EC0000F06AFC00220421794800F065FC00222D
:1006FC000821774800F060FC01221021744800F0BA
:10070C005BFC01222021724800F056FC00224021A3
:10071C006F4800F051FCD7E0012201216C4800F039
:10072C004BFC002202216A4800F046FC0022042106
:10073C00674800F041FC01220821654800F03CFCB0
:10074C0001221021624800F037FC00222021604871
:10075C0000F032FC002240215D4800F02DFCB3E09B
:10076C00002201215A4800F027FC0122022158489E
:10077C0000F022FC00220421554800F01DFC002250
:10078C000821534800F018FC01221021504800F0B9
:10079C0013FC002220214E4800F00EFC00224021C8
:1007AC004B4800F009FC8FE000220121484800F082
:1007BC0003FC01220221464800F0FEFB002204212A
:1007CC00434800F0F9FB00220821414800F0F4FBFB
:1007DC00002210213E4800F0EFFB002220213C4873
:1007EC0000F0EAFB00224021394800F0E5FB6BE009
:1007FC0000220121364800F0DFFB002202213448A0
:10080C0000F0DAFB00220421314800F0D5FB012274
:10081C0008212F4800F0D0FB012210212C4800F0B9
:10082C00CBFB012220212A4800F0C6FB01224021EB
:10083C00274800F0C1FB47E000220121244800F0CA
:10084C00BBFB00220221224800F0B6FB002204214F
:10085C001F4800F0B1FB002208211D4800F0ACFB42
:10086C00002210211A4800F0A7FB00222021184872
:10087C0000F0A2FB00224021154800F09DFB23E074
:10088C0000220121124800F097FB0022022110489F
:10089C0000F092FB002204210D4800F08DFB002299
:1008AC0008210B4800F088FB01221021084800F0B9
:1008BC0083FB00222021064800F07EFB0022402111
:1008CC00034800F079FB00BF00BF0837BD4680BD70
:1008DC00000C014080B400AF72B600BFFEE7000010
:1008EC0080B485B000AF154B9B69144A43F00103EB
:1008FC009361124B9B6903F00103BB60BB680F4B08
:10090C00DB690E4A43F08053D3610C4BDB6903F077
:10091C0080537B607B680A4B5B68FB60FB6823F051
:10092C00E063FB60FB6843F08063FB60044AFB6898
:10093C00536000BF1437BD4680BC704700100240A6
:10094C000000014080B400AFFEE780B400AFFEE7CA
:10095C0080B400AFFEE780B400AFFEE780B400AF18
:10096C00FEE780B400AF00BFBD4680BC704780B4CA
:10097C0000AF00BFBD4680BC704780B400AF00BF65
:10098C00BD4680BC704780B500AF00F075F800BF65
:10099C0080BD80B400AF00BFBD4680BC7047000076
:1009AC00FFF7F7FF0B480C490C4A002302E0D45820
:1009BC00C4500433C4188C42F9D3094A094C00239F
:1009CC0001E013600432A242FBD300F0EBFEFFF710
:1009DC00B7FB7047000000200C0000204C180008EA
:1009EC000C0000202C000020FEE7000080B500AFBA
:1009FC00084B1B68074A43F010031360032000F0F8
:100A0C002BF90F2000F008F8FFF76AFF00231846B7
:100A1C0080BD00BF0020024080B582B000AF78607E
:100A2C00124B1A68124B1B7819464FF47A73B3FBAE
:100A3C00F1F3B2FBF3F3184600F035F90346002B43
:100A4C0001D001230EE07B680F2B0AD800227968B5
:100A5C004FF0FF3000F00BF9064A7B68136000235F
:100A6C0000E0012318460837BD4680BD0000002079
:100A7C00080000200400002080B400AF054B1B7858
:100A8C001A46054B1B681344034A136000BFBD464E
:100A9C0080BC7047080000202800002080B400AF04
:100AAC00024B1B681846BD4680BC704728000020CE
:100ABC0080B584B000AF7860FFF7F0FFB8607B685A
:100ACC00FB60FB68B3F1FF3F05D00A4B1B781A465D
:100ADC00FB681344FB6000BFFFF7E0FF0246BB68F6
:100AEC00D31AFA689A42F7D800BF00BF1037BD4638
:100AFC0080BD00BF0800002080B485B000AF7860D6
:100B0C007B6803F00703FB600C4BDB68BB60BA68C7
:100B1C004FF6FF031340BB60FB681A02BB6813431C
:100B2C0043F0BF6343F40033BB60044ABB68D3603B
:100B3C0000BF1437BD4680BC704700BF00ED00E01D
:100B4C0080B400AF044BDB681B0A03F007031846A4
:100B5C00BD4680BC704700BF00ED00E080B483B0A0
:100B6C0000AF03463960FB7197F90730002B0ADBA5
:100B7C003B68DAB20C4997F907301201D2B20B4438
:100B8C0083F800230AE03B68DAB20849FB7903F0EA
:100B9C000F03043B1201D2B20B441A7600BF0C3780
:100BAC00BD4680BC704700BF00E100E000ED00E0F6
:100BBC0080B489B000AFF860B9607A60FB6803F06C
:100BCC000703FB61FB69C3F10703042B28BF042354
:100BDC00BB61FB690433062B02D9FB69033B00E0C4
:100BEC0000237B614FF0FF32BB6902FA03F3DA4357
:100BFC00BB681A407B699A404FF0FF317B6901FA60
:100C0C0003F3D9437B680B40134318462437BD4686
:100C1C0080BC704780B582B000AF78607B68013BC8
:100C2C00B3F1807F01D301230FE00A4A7B68013BBB
:100C3C0053600F214FF0FF30FFF790FF054B002260
:100C4C009A60044B07221A60002318460837BD46E9
:100C5C0080BD00BF10E000E080B582B000AF7860CE
:100C6C007868FFF749FF00BF0837BD4680BD80B5E7
:100C7C0086B000AF0346B9607A60FB7300237B61DA
:100C8C00FFF75EFF78617A68B9687869FFF790FFC3
:100C9C00024697F90F3011461846FFF75FFF00BF69
:100CAC001837BD4680BD80B582B000AF78607868DB
:100CBC00FFF7B0FF034618460837BD4680BD00005D
:100CCC0080B48BB000AF7860396000237B62002366
:100CDC003B6261E101227B6A02FA03F3FB613B6830
:100CEC001B68FA691340BB61BA69FB699A4240F010
:100CFC0050813B685B68974A93425ED0954A934219
:100D0C0075D8954A934258D0934A93426FD8934AD8
:100D1C00934252D0914A934269D8914A93424CD013
:100D2C008F4A934263D88F4A934246D08D4A93425E
:100D3C005DD8122B2AD8122B59D801A252F823F0C5
:100D4C00C70D0008A10D0008B30D0008F50D000833
:100D5C00FB0D0008FB0D0008FB0D0008FB0D000847
:100D6C00FB0D0008FB0D0008FB0D0008FB0D000837
:100D7C00FB0D0008FB0D0008FB0D0008FB0D000827
:100D8C00FB0D0008A90D0008BD0D0008764A934222
:100D9C0013D02CE03B68DB683B6229E03B68DB68E6
:100DAC0004333B6224E03B68DB6808333B621FE0A2
:100DBC003B68DB680C333B621AE03B689B68002B9A
:100DCC0002D104233B6213E03B689B68012B05D1E5
:100DDC0008233B627B68FA691A6109E008233B62CD
:100DEC007B68FA695A6103E000233B6200E000BFB4
:100DFC00BB69FF2B01D87B6801E07B6804337B6106
:100E0C00BB69FF2B02D87B6A9B0002E07B6A083B24
:100E1C009B003B617B691A680F213B6901FA03F364
:100E2C00DB431A40396A3B6901FA03F31A437B69C5
:100E3C001A603B685B6803F08053002B00F0A980BC
:100E4C004A4B9B69494A43F001039361474B9B69A9
:100E5C0003F00103BB60BB68454A7B6A9B08023305
:100E6C0052F82330FB607B6A03F003039B000F22D4
:100E7C0002FA03F3DB43FA681340FB607B683D4ADC
:100E8C0093420DD07B683C4A934207D07B683B4A27
:100E9C00934201D1022304E0032302E0012300E08A
:100EAC0000237A6A02F0030292009340FA6813431B
:100EBC00FB602F497B6A9B080233FA6841F82320B8
:100ECC003B685B6803F48013002B06D02C4B9A68AC
:100EDC002B49BB6913438B6006E0294B9A68BB69AD
:100EEC00DB43274913408B603B685B6803F40013BA
:100EFC00002B06D0224BDA682149BB691343CB6027
:100F0C0006E01F4BDA68BB69DB431D491340CB601D
:100F1C003B685B6803F40033002B06D0184B5A680F
:100F2C001749BB6913434B6006E0154B5A68BB6904
:100F3C00DB43134913404B603B685B6803F480331D
:100F4C00002B1FD00E4B1A680D49BB6913430B6065
:100F5C001FE000BF00003210000031100000221012
:100F6C0000002110000012100000111000100240AF
:100F7C000000014000080140000C0140001001403D
:100F8C00000401400B4B1A68BB69DB430949134051
:100F9C000B607B6A01337B623B681A687B6A22FABE
:100FAC0003F3002B7FF496AE00BF00BF2C37BD4679
:100FBC0080BC70470004014080B483B000AF7860FF
:100FCC000B467B8013467B707B78002B03D07A8892
:100FDC007B681A6103E07B881A047B681A6100BF86
:100FEC000C37BD4680BC704780B586B000AF7860CA
:100FFC007B68002B01D1012372E27B681B6803F034
:10100C000103002B00F08780924B5B6803F00C030C
:10101C00042B0CD08F4B5B6803F00C03082B12D104
:10102C008C4B5B6803F48033B3F5803F0BD1894B59
:10103C001B6803F40033002B6CD07B685B68002BBF
:10104C0068D101234CE27B685B68B3F5803F06D125
:10105C00804B1B687F4A43F4803313602EE07B681F
:10106C005B68002B0CD17B4B1B687A4A23F48033D2
:10107C001360784B1B68774A23F4802313601DE0C0
:10108C007B685B68B3F5A02F0CD1724B1B68714A5F
:10109C0043F4802313606F4B1B686E4A43F4803318
:1010AC0013600BE06B4B1B686A4A23F480331360AC
:1010BC00684B1B68674A23F4802313607B685B686A
:1010CC00002B13D0FFF7EAFC386108E0FFF7E6FCD1
:1010DC0002463B69D31A642B01D9032300E25D4B12
:1010EC001B6803F40033002BF0D014E0FFF7D6FCA0
:1010FC00386108E0FFF7D2FC02463B69D31A642B37
:10110C0001D90323ECE1534B1B6803F40033002B90
:10111C00F0D100E000BF7B681B6803F00203002BDA
:10112C0063D04C4B5B6803F00C03002B0BD0494B8A
:10113C005B6803F00C03082B1CD1464B5B6803F473
:10114C008033002B16D1434B1B6803F00203002B9A
:10115C0005D07B681B69012B01D00123C0E13D4BFD
:10116C001B6823F0F8027B685B69DB003949134389
:10117C000B603AE07B681B69002B20D0364B0122B8
:10118C001A60FFF78BFC386108E0FFF787FC02461A
:10119C003B69D31A022B01D90323A1E12D4B1B6808
:1011AC0003F00203002BF0D02A4B1B6823F0F8024B
:1011BC007B685B69DB00274913430B6015E0264B0A
:1011CC0000221A60FFF76AFC386108E0FFF766FC42
:1011DC0002463B69D31A022B01D9032380E11D4B34
:1011EC001B6803F00203002BF0D17B681B6803F033
:1011FC000803002B3AD07B689B69002B19D0174B46
:10120C0001221A60FFF74AFC386108E0FFF746FC40
:10121C0002463B69D31A022B01D9032360E10D4B23
:10122C005B6A03F00203002BF0D0012000F09CFA63
:10123C001CE00A4B00221A60FFF730FC38610FE00B
:10124C00FFF72CFC02463B69D31A022B08D9032367
:10125C0046E100BF001002400000424280044242BE
:10126C00924B5B6A03F00203002BE9D17B681B688D
:10127C0003F00403002B00F0A6800023FB758B4BBE
:10128C00DB6903F08053002B0DD1884BDB69874A57
:10129C0043F08053D361854BDB6903F08053BB6013
:1012AC00BB680123FB75824B1B6803F48073002B16
:1012BC0018D17F4B1B687E4A43F480731360FFF791
:1012CC00EDFB386108E0FFF7E9FB02463B69D31AF6
:1012DC00642B01D9032303E1754B1B6803F4807362
:1012EC00002BF0D07B68DB68012B06D16F4B1B6A9F
:1012FC006E4A43F0010313622DE07B68DB68002B20
:10130C000CD16A4B1B6A694A23F001031362674BC9
:10131C001B6A664A23F0040313621CE07B68DB68DB
:10132C00052B0CD1614B1B6A604A43F0040313621A
:10133C005E4B1B6A5D4A43F0010313620BE05B4B8F
:10134C001B6A5A4A23F001031362584B1B6A574A13
:10135C0023F0040313627B68DB68002B15D0FFF7C6
:10136C009DFB38610AE0FFF799FB02463B69D31AF3
:10137C0041F28832934201D90323B1E04B4B1B6AF3
:10138C0003F00203002BEED014E0FFF787FB38616B
:10139C000AE0FFF783FB02463B69D31A41F288321D
:1013AC00934201D903239BE0404B1B6A03F00203D9
:1013BC00002BEED1FB7D012B05D13C4BDB693B4A6D
:1013CC0023F08053D3617B68DB69002B00F08780AE
:1013DC00364B5B6803F00C03082B61D07B68DB6930
:1013EC00022B46D1334B00221A60FFF757FB3861B2
:1013FC0008E0FFF753FB02463B69D31A022B01D9D5
:10140C0003236DE0294B1B6803F00073002BF0D114
:10141C007B681B6AB3F5803F08D1244B5B6823F4CF
:10142C0000327B689B68214913434B601F4B5B6800
:10143C0023F474127B68196A7B685B6A0B431B4943
:10144C0013434B601B4B01221A60FFF727FB3861DB
:10145C0008E0FFF723FB02463B69D31A022B01D9A4
:10146C0003233DE0114B1B6803F00073002BF0D0FD
:10147C0035E0104B00221A60FFF710FB386108E0D2
:10148C00FFF70CFB02463B69D31A022B01D903234D
:10149C0026E0064B1B6803F00073002BF0D11EE016
:1014AC007B68DB69012B07D1012319E00010024096
:1014BC0000700040600042420B4B5B68FB60FB68B5
:1014CC0003F480327B681B6A9A4206D1FB6803F4F2
:1014DC0070127B685B6A9A4201D0012300E0002302
:1014EC0018461837BD4680BD0010024080B584B048
:1014FC0000AF786039607B68002B01D10123D0E00C
:10150C006A4B1B6803F007033A689A4210D9674B81
:10151C001B6823F0070265493B6813430B60634B60
:10152C001B6803F007033A689A4201D00123B8E024
:10153C007B681B6803F00203002B20D07B681B68C0
:10154C0003F00403002B05D0594B5B68584A43F455
:10155C00E06353607B681B6803F00803002B05D025
:10156C00534B5B68524A43F460535360504B5B6877
:10157C0023F0F0027B689B684D4913434B607B68FA
:10158C001B6803F00103002B40D07B685B68012BC8
:10159C0007D1474B1B6803F40033002B15D10123F3
:1015AC007FE07B685B68022B07D1414B1B6803F023
:1015BC000073002B09D1012373E03D4B1B6803F032
:1015CC000203002B01D101236BE0394B5B6823F044
:1015DC0003027B685B68364913434B60FFF75EFA86
:1015EC00F8600AE0FFF75AFA0246FB68D31A41F298
:1015FC008832934201D9032353E02D4B5B6803F0EF
:10160C000C027B685B689B009A42EBD1274B1B68F2
:10161C0003F007033A689A4210D2244B1B6823F05C
:10162C00070222493B6813430B60204B1B6803F0F5
:10163C0007033A689A4201D0012332E07B681B68A9
:10164C0003F00403002B08D0194B5B6823F4E06211
:10165C007B68DB68164913434B607B681B6803F09F
:10166C000803002B09D0124B5B6823F460527B6893
:10167C001B69DB000E4913434B6000F021F8024656
:10168C000B4B5B681B0903F00F030A49CB5C22FA76
:10169C0003F3094A1360094B1B681846FFF7BCF9A2
:1016AC00002318461037BD4680BD00BF0020024005
:1016BC000010024020180008000000200400002048
:1016CC0080B487B000AF0023FB600023BB60002315
:1016DC007B6100237B6000233B611E4B5B68FB60DE
:1016EC00FB6803F00C03042B02D0082B03D027E07B
:1016FC00194B3B6127E0FB689B0C03F00F03174A67
:10170C00D35C7B60FB6803F48033002B10D0114B4F
:10171C005B685B0C03F00103114AD35CBB607B6814
:10172C000D4A03FB02F2BB68B2FBF3F37B6104E0EE
:10173C007B680C4A02FB03F37B617B693B6102E033
:10174C00054B3B6100BF3B6918461C37BD4680BC4E
:10175C00704700BF0010024000127A0030180008D9
:10176C004018000800093D0080B485B000AF7860D7
:10177C000A4B1B680A4AA2FB03235B0A7A6802FB2A
:10178C0003F3FB6000BFFB685A1EFA60002BF9D113
:10179C0000BF00BF1437BD4680BC7047000000205E
:1017AC00D34D621070B500260C4D0D4C641BA4106B
:1017BC00A64209D100F022F800260A4D0A4C641BFF
:1017CC00A410A64205D170BD55F8043B98470136CC
:1017DC00EEE755F8043B98470136F2E74418000849
:1017EC00441800084418000848180008034602442E
:1017FC00934200D1704703F8011BF9E7F8B500BF1D
:10180C00F8BC08BC9E467047F8B500BFF8BC08BCD5
:04181C009E4670472D
:101820000000000000000000010203040607080990
:1018300002030405060708090A0B0C0D0E0F101011
:0418400001020000A1
:041844003101000866
:041848000D01000886
:0C184C000024F400100000000100000067
:04000005080009AD39
:00000001FF
