:020000040800F2
:100000000028002081160008651400086B14000801
:1000100071140008771400087D1400080000000027
:100020000000000000000000000000008314000831
:100030008F140008000000009B140008A71400089B
:10004000C9160008C9160008C9160008C916000814
:10005000C9160008C9160008C9160008C916000804
:10006000C9160008C9160008C9160008C9160008F4
:10007000C9160008C9160008C9160008C9160008E4
:10008000C9160008C9160008C9160008C9160008D4
:10009000C9160008C9160008C9160008C9160008C4
:1000A000C9160008C9160008C9160008C9160008B4
:1000B000B5140008C916000800000000C9160008A1
:1000C000C91600080000000000000000C916000862
:1000D00000000000C9160008C91600080000000052
:1000E000C9160008C9160008C9160008000000005B
:1000F0000000000000000000000000000000000000
:0C01000000000000000000005FF808F1A3
:10010C0010B5054C237833B9044B13B10448AFF345
:10011C0000800123237010BD1C0000200000000093
:10012C00182D000808B5034B1BB103490348AFF366
:10013C00008008BD0000000020000020182D0008E1
:10014C0080B582B000AF78607B68092B00F28081AB
:10015C0001A252F823F000BF8D010008D501000860
:10016C001D02000865020008AD020008F502000837
:10017C003D03000885030008CD03000815040008A2
:10018C0000220121B54801F09EFD00220221B34856
:10019C0001F099FD00220421B04801F094FD0022E9
:1001AC000821AE4801F08FFD00221021AB4801F070
:1001BC008AFD00222021A94801F085FD0122402161
:1001CC00A64801F080FD44E101220121A34801F081
:1001DC007AFD00220221A14801F075FD00220421C4
:1001EC009E4801F070FD012208219C4801F06BFD36
:1001FC0001221021994801F066FD01222021974827
:10020C0001F061FD01224021944801F05CFD20E1E8
:10021C0000220121914801F056FD002202218F4855
:10022C0001F051FD012204218C4801F04CFD00220B
:10023C0008218A4801F047FD00221021874801F06F
:10024C0042FD01222021854801F03DFD0022402184
:10025C00824801F038FDFCE0002201217F4801F0CA
:10026C0032FD002202217D4801F02DFD00220421E7
:10027C007A4801F028FD00220821784801F023FD7E
:10028C0001221021754801F01EFD01222021734826
:10029C0001F019FD00224021704801F014FDD8E056
:1002AC00012201216D4801F00EFD002202216B4854
:1002BC0001F009FD00220421684801F004FD01222F
:1002CC000821664801F0FFFC01221021634801F06F
:1002DC00FAFC00222021614801F0F5FC00224021AB
:1002EC005E4801F0F0FCB4E0002201215B4801F013
:1002FC00EAFC01220221594801F0E5FC002204210C
:10030C00564801F0E0FC00220821544801F0DBFCC7
:10031C0001221021514801F0D6FC002220214F4827
:10032C0001F0D1FC002240214C4801F0CCFC90E0C3
:10033C0000220121494801F0C6FC01220221474854
:10034C0001F0C1FC00220421444801F0BCFC002255
:10035C000821424801F0B7FC002210213F4801F06F
:10036C00B2FC002220213D4801F0ADFC00224021CE
:10037C003A4801F0A8FC6CE000220121374801F05A
:10038C00A2FC00220221354801F09DFC0022042130
:10039C00324801F098FC01220821304801F093FC0E
:1003AC00012210212D4801F08EFC012220212B4826
:1003BC0001F089FC01224021284801F084FC48E02E
:1003CC0000220121254801F07EFC00220221234855
:1003DC0001F079FC00220421204801F074FC002279
:1003EC0008211E4801F06FFC002210211B4801F06F
:1003FC006AFC00222021194801F065FC00224021F2
:10040C00164801F060FC24E000220121134801F0A1
:10041C005AFC00220221114801F055FC0022042153
:10042C000E4801F050FC002208210C4801F04BFC56
:10043C0001221021094801F046FC00222021074826
:10044C0001F041FC00224021044801F03CFC00E09A
:10045C0000BF00BF0837BD4680BD00BF000801408B
:10046C0080B400AF084B1B68084A1360084B1B682C
:10047C00084A1360084B00221A70084B02221A70AB
:10048C0000BFBD4680BC704740000020000000202B
:10049C004800002004000020380000200800002044
:1004AC0080B500AFAB4B1B68013BAA4A1360AA4B4B
:1004BC001B68013BA84A1360A84B1B78022B69D020
:1004CC00022B00F39880002B02D0012B31D092E04C
:1004DC0000224FF48071A24801F0F5FB01224FF489
:1004EC0000719F4801F0EFFB01224FF480619C48A2
:1004FC0001F0E9FB974B1B68002B7EDA994B1B68CC
:10050C00013B944A1360954B02221A7001224FF45E
:10051C008071934801F0D7FB01224FF40071904891
:10052C0001F0D1FB00224FF480618D4801F0CBFB30
:10053C0063E001224FF48071894801F0C4FB002272
:10054C004FF40071864801F0BEFB01224FF480612C
:10055C00834801F0B8FB7F4B1B68002B4FDA824BB2
:10056C001B68013B7B4A13607C4B00221A700022F3
:10057C004FF480717A4801F0A6FB01224FF4007110
:10058C00774801F0A0FB01224FF48061744801F020
:10059C009AFB34E001224FF48071714801F093FB17
:1005AC0001224FF400716E4801F08DFB00224FF4D4
:1005BC0080616B4801F087FB664B1B68002B20DACF
:1005CC006A4B1B68013B634A1360644B01221A702F
:1005DC0001224FF48071624801F075FB00224FF448
:1005EC0000715F4801F06FFB01224FF480615C48A1
:1005FC0001F069FB05E000BF04E000BF02E000BFB2
:10060C0000E000BF5A4B1B78022B69D0022B00F381
:10061C009880002B02D0012B31D092E000224FF4B5
:10062C0000614F4801F04FFB01224FF480514C48C0
:10063C0001F049FB01224FF40051494801F043FB02
:10064C00454B1B68002B7EDA464B1B68013B424A2C
:10065C001360474B02221A7001224FF4006140488C
:10066C0001F031FB01224FF480513D4801F02BFB8E
:10067C0000224FF400513A4801F025FB63E00122BF
:10068C004FF40061364801F01EFB00224FF48051FC
:10069C00334801F018FB01224FF40051304801F0AF
:1006AC0012FB2D4B1B68002B4FDA2F4B1B68013BA9
:1006BC00294A13602E4B00221A7000224FF400615D
:1006CC00274801F000FB01224FF48051244801F02F
:1006DC00FAFA01224FF40051214801F0F4FA34E007
:1006EC0001224FF400611E4801F0EDFA01224FF493
:1006FC0080511B4801F0E7FA00224FF400511848D2
:10070C0001F0E1FA144B1B68002B20DA174B1B6825
:10071C00013B114A1360164B01221A7001224FF44F
:10072C0000610F4801F0CFFA00224FF480510C48C1
:10073C0001F0C9FA01224FF40051094801F0C3FA43
:10074C0005E000BF04E000BF02E000BF00E000BF16
:10075C0000BF80BD000000200400002038000020F5
:10076C00000C014048000020400000204400002004
:10077C000800002080B400AF104B1B68013B032B1A
:10078C0016D801A252F823F0A5070008AB07000801
:10079C00B1070008B7070008094B1B680AE0094BB2
:1007AC001B6807E0084B1B6804E0084B1B6801E062
:1007BC0000BF00231846BD4680BC70470C000020CB
:1007CC00000000204C0000205000002054000020AD
:1007DC0080B400AF104B1B68013B032B16D801A251
:1007EC0052F823F001080008070800080D0800085B
:1007FC0013080008094B1B680AE0094B1B6807E04B
:10080C00084B1B6804E0084B1B6801E000BF002389
:10081C001846BD4680BC70470C0000200400002028
:10082C004C000020500000205400002080B500AF88
:10083C00544B1B68013B032B00F2998001A252F828
:10084C0023F000BF6108000879080008CF080008F1
:10085C002509000800F0DEFE0346002B00F089801D
:10086C00FA2000F031FEFFF71BFE82E000F0D2FE12
:10087C000346002B7FD0C82000F026FE4FF4807179
:10088C00414801F038FA4FF400613F4801F033FA67
:10089C0001224FF400713C4801F015FA01224FF48B
:1008AC008061394801F00FFA01224FF4805136482B
:1008BC0001F009FA01224FF40051334801F003FA18
:1008CC0059E000F0A7FE0346002B56D0C82000F0DC
:1008DC00FBFD4FF400712C4801F00DFA4FF48051E0
:1008EC00294801F008FA01224FF48071264801F0E2
:1008FC00EAF901224FF48061234801F0E4F9012266
:10090C004FF40061204801F0DEF901224FF4005150
:10091C001D4801F0D8F930E000F07CFE0346002BB6
:10092C002DD0C82000F0D0FD4FF48061164801F0A6
:10093C00E2F94FF40051144801F0DDF901224FF4B3
:10094C000071114801F0BFF901224FF480710E487B
:10095C0001F0B9F901224FF480510B4801F0B3F9C1
:10096C0001224FF40061084801F0ADF907E000BF27
:10097C0006E000BF04E000BF02E000BF00E000BFE3
:10098C0000BF80BD0C000020000C014080B500AF02
:10099C007E4B1B68042B00F2F68001A252F823F068
:1009AC00C10900081D0A0008830A0008DF0A0008B4
:1009BC00450B000800224FF48051754801F083F973
:1009CC0000224FF40061724801F07DF900224FF4CF
:1009DC0080616F4801F077F900224FF400716C4888
:1009EC0001F071F901224FF48071694801F06BF943
:1009FC00FFF7C0FE0346674A82FB03129210DB1717
:100A0C00D31A1846FFF79CFB604B01221A60BBE01F
:100A1C0000224FF480715E4801F055F900224FF42A
:100A2C0080515B4801F04FF900224FF400615848A7
:100A3C0001F049F900224FF48061554801F043F967
:100A4C0001224FF40071524801F03DF9FFF792FE7C
:100A5C000146504B83FB01239A10CB17D21A134635
:100A6C009B0013445B00CA1A1046FFF769FB474B07
:100A7C0002221A6088E000224FF40071444801F011
:100A8C0022F900224FF48071414801F01CF9002238
:100A9C004FF480513E4801F016F900224FF40061EA
:100AAC003B4801F010F901224FF48061384801F005
:100ABC000AF9FFF78DFE0346364A82FB03129210A9
:100ACC00DB17D31A1846FFF73BFB304B03221A6097
:100ADC005AE000224FF480612D4801F0F4F8002216
:100AEC004FF400712A4801F0EEF800224FF48071A7
:100AFC00274801F0E8F800224FF48051244801F017
:100B0C00E2F801224FF40061214801F0DCF8FFF714
:100B1C005FFE01461F4B83FB01239A10CB17D21AA1
:100B2C0013469B0013445B00CA1A1046FFF708FBE0
:100B3C00164B04221A6027E000224FF4006114487F
:100B4C0001F0C1F800224FF48061114801F0BBF8AC
:100B5C0000224FF400710E4801F0B5F800224FF45A
:100B6C0080710B4801F0AFF801224FF48051084816
:100B7C0001F0A9F8084B1B681846FFF7E1FA034B84
:100B8C0000221A6000E000BF00BF80BD3C000020C6
:100B9C0000080140676666660C00002080B400AF58
:100BAC000C4B1E221A600C4B05221A600B4B19229F
:100BBC001A60084B1B680A4A1360074B1B68094AEA
:100BCC001360064B1B68084A136000BFBD4680BC0F
:100BDC00704700BF40000020440000204800002067
:100BEC004C000020500000205400002080B500AFC5
:100BFC00164B1B78002B02D0012B18D024E00020C0
:100C0C0000F046FA0346002B1BD0104B01221A7041
:100C1C000F4B1B6801330E4A13600D4B1B68042BE2
:100C2C000FDD0B4B01221A60FFF71AFC09E00020C4
:100C3C0000F02EFA0346002B05D1044B00221A704B
:100C4C0001E000BF00E000BF00BF80BD58000020E5
:100C5C000C00002080B400AF1E4B1B68042B20D06E
:100C6C00042B2BDC022B02D0032B0DD026E01A4BCD
:100C7C001B680133184A1360174B1B68632B1FDD6D
:100C8C00154B00221A601BE0144B1B680133134AEE
:100C9C001360124B1B68632B14DD104B00221A607F
:100CAC0010E00F4B1B6801330D4A13600C4B1B6893
:100CBC00632B09DD0A4B00221A6005E000BF04E03B
:100CCC0000BF02E000BF00E000BF00BFBD4680BC1B
:100CDC00704700BF0C0000204C000020500000208A
:100CEC005400002080B483B000AF00237B602B4BFA
:100CFC001B68042B34D0042B49DC022B02D0032BB1
:100D0C0017D044E0264B1A68264B1B68D31A7B601D
:100D1C00234B1B68234A1360234B1A687B681344CC
:100D2C00214A1360214B1A687B6813441F4A1360D5
:100D3C002EE01F4B1A681F4B1B68D31A7B601C4B91
:100D4C001B681C4A1360174B1A687B681344154ABE
:100D5C001360134B1A687B681344114A136017E035
:100D6C00124B1A68104B1B68D31A7B600F4B1B6815
:100D7C000D4A13600C4B1A687B6813440A4A1360C3
:100D8C000A4B1A687B681344084A136000E000BFE2
:100D9C0000BF0C37BD4680BC704700BF0C00002064
:100DAC004C0000204000002048000020540000208F
:100DBC00500000204400002080B500AF344B5B781D
:100DCC00022B27D0022B3ADC002B02D0012B0CD0AB
:100DDC0035E0012000F05CF90346002B31D02C4BA0
:100DEC0001225A70FFF736FF2BE0012000F050F97A
:100DFC000346002B02D1264B00225A70012000F032
:100E0C0061F90346002B1ED0214B02225A70FFF7CA
:100E1C0021FF18E0012000F03BF90346002B02D122
:100E2C001B4B00225A70012000F066F90346002B80
:100E3C000BD0012000F07AF9FFF70CFF05E000BFA2
:100E4C0004E000BF02E000BF00E000BF104B9B7845
:100E5C00002B02D0012B0CD018E0022000F018F966
:100E6C000346002B0FD00A4B01229A70FFF73AFF72
:100E7C0009E0022000F00CF90346002B05D1044BCD
:100E8C0000229A7001E000BF00E000BF00BF80BDEF
:100E9C005800002080B483B000AF00237B602AE0B0
:100EAC00194A7B68134401221A70184A7B68134450
:100EBC0001221A70164A7B68134401221A70154AD3
:100ECC007B68134401221A70134A7B681344002276
:100EDC001A70124A7B68134400221A70104A7B68FD
:100EEC00002122F813100F4A7B68002122F81310FE
:100EFC007B6801337B607B68022BD1DD00BF00BFB8
:100F0C000C37BD4680BC70475C00002060000020A0
:100F1C0064000020680000206C000020700000209D
:100F2C00740000207C00002080B582B000AF00234C
:100F3C007B6092E04D4A7B68134419784C4A7B687D
:100F4C0013440A461A704B4A7B6813441978474A73
:100F5C007B6813440A461A7001227B6802FA03F379
:100F6C009BB21946444800F097FE03461946414A85
:100F7C007B6813440A461A703E4A7B6813441A78FD
:100F8C003A497B680B441B789A4212D1384A7B68E9
:100F9C0013441A7835497B680B441B789A4208D164
:100FAC00344A7B6813441978344A7B6813440A46E4
:100FBC001A70324A7B6813441B78002B36D1304AA6
:100FCC007B6832F81330C72B0AD82D4A7B6832F86D
:100FDC001330013399B22A4A7B6822F8131039E096
:100FEC00284A7B68134401221A70274A7B6832F81E
:100FFC001330312B2ED8244A7B6832F8133001334E
:10100C0099B2214A7B6822F813101F4A7B6832F888
:10101C001330312B1ED91C4A7B68002122F8131087
:10102C001A4A7B68134401221A7013E0144A7B6835
:10103C00002122F81310134A7B68134400221A7003
:10104C00114A7B68002122F81310104A7B68134464
:10105C0000221A707B6801337B607B68022B7FF760
:10106C0069AF00BF00BF0837BD4680BD64000020DB
:10107C006800002060000020000C01405C00002093
:10108C00740000206C0000207C0000207000002008
:10109C0080B483B000AF0346FB71FB79022B01D9FE
:1010AC00002307E0FB79064AD35C002B0CBF01231D
:1010BC000023DBB218460C37BD4680BC704700BF1E
:1010CC005C00002080B483B000AF0346FB71FB7959
:1010DC00022B01D9002307E0FB79064AD35C012BD4
:1010EC000CBF01230023DBB218460C37BD4680BC75
:1010FC00704700BF6C00002080B483B000AF034683
:10110C00FB71FB79022B01D9002307E0FB79064A1E
:10111C00D35C012B0CBF01230023DBB218460C3728
:10112C00BD4680BC704700BF7000002080B483B007
:10113C0000AF0346FB71FB79034A0021D15400BF79
:10114C000C37BD4680BC70477000002080B500AFE6
:10115C0000F0B6FA00F03AF800F0C0F800F072F8BF
:10116C00184801F00FFAFFF795FEFFF717FD012065
:10117C0000F0AAF9012000F0BBF9012000F0CCF935
:10118C00012000F0DDF9FFF731FD00F057FA0346BE
:10119C00002B04D0FFF7FAFB012000F0BDF9FFF79C
:1011AC0045FBFFF709FE00F03FFA0346002BEAD09F
:1011BC008021054800F09FFD4FF4FA7000F098F97B
:1011CC00E1E700BF840000200008014080B590B02A
:1011DC0000AF07F1180328220021184601F08EFDFC
:1011EC003B1D00221A605A609A60DA601A61022371
:1011FC00BB610123BB621023FB6200237B6307F1FD
:10120C001803184600F090FD0346002B01D000F0A7
:10121C00C7F80F237B600023BB600023FB60002317
:10122C003B6100237B613B1D0021184600F0FEFF53
:10123C000346002B01D000F0B3F800BF4037BD4689
:10124C0080BD000080B586B000AF07F10803002216
:10125C001A605A609A60DA603B4600221A605A6043
:10126C001D4B4FF080421A601B4B40F21F325A60EC
:10127C00194B00229A60184B0922DA60164B002297
:10128C001A61154B00229A61134801F02BF90346A1
:10129C00002B01D000F084F84FF48053BB6007F1B1
:1012AC00080319460C4801F0C1FA0346002B01D083
:1012BC0000F076F800233B6000237B603B46194628
:1012CC00054801F08DFC0346002B01D000F068F8B6
:1012DC0000BF1837BD4680BD8400002080B586B0A5
:1012EC0000AF07F1080300221A605A609A60DA60B6
:1012FC00284B9B69274A43F004039361254B9B6958
:10130C0003F004037B607B68224B9B69214A43F00A
:10131C00080393611F4B9B6903F008033B603B6818
:10132C00002241F6FF711C4800F0CDFC00224FF466
:10133C007C511A4800F0C7FC41F6FF73BB600123D7
:10134C00FB6000233B6102237B6107F10803194614
:10135C00114800F025FB0723BB600023FB60002332
:10136C003B6107F1080319460C4800F019FB4FF4D8
:10137C007C53BB600123FB6000233B6102237B6138
:10138C0007F108031946054800F00AFB00BF18379F
:10139C00BD4680BD0010024000080140000C014019
:1013AC0080B400AF72B600BFFEE7000080B485B019
:1013BC0000AF154B9B69144A43F001039361124B28
:1013CC009B6903F00103BB60BB680F4BDB690E4AE2
:1013DC0043F08053D3610C4BDB6903F080537B608B
:1013EC007B680A4B5B68FB60FB6823F0E063FB6087
:1013FC00FB6843F08063FB60044AFB68536000BFEA
:10140C001437BD4680BC70470010024000000140FC
:10141C0080B584B000AF78607B681B68B3F1804FF7
:10142C0013D10C4BDB690B4A43F00103D361094B1D
:10143C00DB6903F00103FB60FB68002200211C2028
:10144C0000F077FA1C2000F090FA00BF1037BD4670
:10145C0080BD00BF0010024080B400AFFEE780B436
:10146C0000AFFEE780B400AFFEE780B400AFFEE74C
:10147C0080B400AFFEE780B400AF00BFBD4680BCB7
:10148C00704780B400AF00BFBD4680BC704780B4CD
:10149C0000AF00BFBD4680BC704780B500AF00F008
:1014AC0055F900BF80BD000080B500AF024801F0C7
:1014BC00B5F800BF80BD00BF8400002080B400AF31
:1014CC0000BFBD4680BC704780B483B000AF78606D
:1014DC00054A7B681360054B00221A6000BF0C376D
:1014EC00BD4680BC704700BFCC000020D00000205F
:1014FC0080B483B000AF7860054A7B681360054BFD
:10150C0000221A6000BF0C37BD4680BC704700BF7C
:10151C00D4000020D800002080B483B000AF7860E5
:10152C00054A7B681360054B00221A6000BF0C371C
:10153C00BD4680BC704700BFDC000020E0000020EE
:10154C0080B483B000AF7860054A7B681360054BAC
:10155C0000221A6000BF0C37BD4680BC704700BF2C
:10156C00E4000020E800002080B400AF214B1B6891
:10157C00002B0BDD1F4B1B68013B1E4A13601D4BE0
:10158C001B68002B02D11C4B01221A601B4B1B68E1
:10159C00002B0BDD194B1B68013B184A1360174BD2
:1015AC001B68002B02D1164B01221A60154B1B68CD
:1015BC00002B0BDD134B1B68013B124A1360114BC4
:1015CC001B68002B02D1104B01221A600F4B1B68B9
:1015DC00002B0BDD0D4B1B68013B0C4A13600B4BB6
:1015EC001B68002B02D10A4B01221A6000BFBD46BA
:1015FC0080BC7047CC000020D0000020D40000201C
:10160C00D8000020DC000020E0000020E4000020D6
:10161C00E800002080B400AF024B1B681846BD46A2
:10162C0080BC7047D000002080B400AF024B1B6818
:10163C001846BD4680BC7047D800002080B400AF6F
:10164C00024B1B681846BD4680BC7047E00000206A
:10165C0080B582B000AF7860FFF786FF7B681B68AF
:10166C00B3F1804F01D1FFF75FFC00BF0837BD46D7
:10167C0080BD0000FFF722FF0B480C490C4A0023E9
:10168C0002E0D458C4500433C4188C42F9D3094A2C
:10169C00094C002301E013600432A242FBD301F099
:1016AC0009FBFFF753FD7047000000201C000020D1
:1016BC005C2D00081C000020F0000020FEE700005C
:1016CC0080B500AF084B1B68074A43F0100313604A
:1016DC00032000F023F90F2000F008F8FFF766FE56
:1016EC000023184680BD00BF0020024080B582B0A8
:1016FC0000AF7860124B1A68124B1B7819464FF4E6
:10170C007A73B3FBF1F3B2FBF3F3184600F03BF939
:10171C000346002B01D001230EE07B680F2B0AD867
:10172C00002279684FF0FF3000F003F9064A7B681D
:10173C001360002300E0012318460837BD4680BD26
:10174C0010000020180000201400002080B400AF0E
:10175C00054B1B781A46054B1B681344034A136050
:10176C0000BFBD4680BC704718000020EC00002074
:10177C0080B400AF024B1B681846BD4680BC704756
:10178C00EC00002080B485B000AF78607B6803F07B
:10179C000703FB600C4BDB68BB60BA684FF6FF03BA
:1017AC001340BB60FB681A02BB68134343F0BF6372
:1017BC0043F40033BB60044ABB68D36000BF1437EA
:1017CC00BD4680BC704700BF00ED00E080B400AFA8
:1017DC00044BDB681B0A03F007031846BD4680BCAC
:1017EC00704700BF00ED00E080B483B000AF03464B
:1017FC00FB7197F90730002B0BDBFB7903F01F0211
:10180C00064997F907305B09012000FA02F241F80A
:10181C00232000BF0C37BD4680BC704700E100E0C0
:10182C0080B483B000AF03463960FB7197F9073081
:10183C00002B0ADB3B68DAB20C4997F9073012012E
:10184C00D2B20B4483F800230AE03B68DAB20849B1
:10185C00FB7903F00F03043B1201D2B20B441A764E
:10186C0000BF0C37BD4680BC704700BF00E100E0F4
:10187C0000ED00E080B489B000AFF860B9607A6028
:10188C00FB6803F00703FB61FB69C3F10703042B3F
:10189C0028BF0423BB61FB690433062B02D9FB6907
:1018AC00033B00E000237B614FF0FF32BB6902FA7F
:1018BC0003F3DA43BB681A407B699A404FF0FF315F
:1018CC007B6901FA03F3D9437B680B401343184639
:1018DC002437BD4680BC704780B582B000AF7860BD
:1018EC007B68013BB3F1807F01D301230FE00A4AEF
:1018FC007B68013B53600F214FF0FF30FFF790FFE7
:10190C00054B00229A60044B07221A6000231846EC
:10191C000837BD4680BD00BF10E000E080B582B046
:10192C0000AF78607868FFF72DFF00BF0837BD4621
:10193C0080BD80B586B000AF0346B9607A60FB739A
:10194C0000237B61FFF742FF78617A68B968786998
:10195C00FFF790FF024697F90F3011461846FFF734
:10196C005FFF00BF1837BD4680BD80B582B000AFA9
:10197C000346FB7197F907301846FFF735FF00BF98
:10198C000837BD4680BD80B582B000AF78607868FE
:10199C00FFF7A2FF034618460837BD4680BD00007E
:1019AC0080B48BB000AF7860396000237B62002379
:1019BC003B6261E101227B6A02FA03F3FB613B6843
:1019CC001B68FA691340BB61BA69FB699A4240F023
:1019DC0050813B685B68974A93425ED0954A93422C
:1019EC0075D8954A934258D0934A93426FD8934AEC
:1019FC00934252D0914A934269D8914A93424CD027
:101A0C008F4A934263D88F4A934246D08D4A934271
:101A1C005DD8122B2AD8122B59D801A252F823F0D8
:101A2C00A71A0008811A0008931A0008D51A000892
:101A3C00DB1A0008DB1A0008DB1A0008DB1A0008A6
:101A4C00DB1A0008DB1A0008DB1A0008DB1A000896
:101A5C00DB1A0008DB1A0008DB1A0008DB1A000886
:101A6C00DB1A0008891A00089D1A0008764A93426E
:101A7C0013D02CE03B68DB683B6229E03B68DB68F9
:101A8C0004333B6224E03B68DB6808333B621FE0B5
:101A9C003B68DB680C333B621AE03B689B68002BAD
:101AAC0002D104233B6213E03B689B68012B05D1F8
:101ABC0008233B627B68FA691A6109E008233B62E0
:101ACC007B68FA695A6103E000233B6200E000BFC7
:101ADC00BB69FF2B01D87B6801E07B6804337B6119
:101AEC00BB69FF2B02D87B6A9B0002E07B6A083B38
:101AFC009B003B617B691A680F213B6901FA03F378
:101B0C00DB431A40396A3B6901FA03F31A437B69D8
:101B1C001A603B685B6803F08053002B00F0A980CF
:101B2C004A4B9B69494A43F001039361474B9B69BC
:101B3C0003F00103BB60BB68454A7B6A9B08023318
:101B4C0052F82330FB607B6A03F003039B000F22E7
:101B5C0002FA03F3DB43FA681340FB607B683D4AEF
:101B6C0093420DD07B683C4A934207D07B683B4A3A
:101B7C00934201D1022304E0032302E0012300E09D
:101B8C0000237A6A02F0030292009340FA6813432E
:101B9C00FB602F497B6A9B080233FA6841F82320CB
:101BAC003B685B6803F48013002B06D02C4B9A68BF
:101BBC002B49BB6913438B6006E0294B9A68BB69C0
:101BCC00DB43274913408B603B685B6803F40013CD
:101BDC00002B06D0224BDA682149BB691343CB603A
:101BEC0006E01F4BDA68BB69DB431D491340CB6031
:101BFC003B685B6803F40033002B06D0184B5A6823
:101C0C001749BB6913434B6006E0154B5A68BB6917
:101C1C00DB43134913404B603B685B6803F4803330
:101C2C00002B1FD00E4B1A680D49BB6913430B6078
:101C3C001FE000BF00003210000031100000221025
:101C4C0000002110000012100000111000100240C2
:101C5C000000014000080140000C01400010014050
:101C6C00000401400B4B1A68BB69DB430949134064
:101C7C000B607B6A01337B623B681A687B6A22FAD1
:101C8C0003F3002B7FF496AE00BF00BF2C37BD468C
:101C9C0080BC70470004014080B485B000AF786010
:101CAC000B467B807B689A687B881340002B02D0A4
:101CBC000123FB7301E00023FB73FB7B18461437F5
:101CCC00BD4680BC704780B483B000AF78600B46D3
:101CDC007B8013467B707B78002B03D07A887B68E3
:101CEC001A6103E07B881A047B681A6100BF0C3709
:101CFC00BD4680BC704780B485B000AF78600B46A1
:101D0C007B807B68DB68FB607A88FB6813401A0475
:101D1C00FB68D9437B880B401A437B681A6100BF70
:101D2C001437BD4680BC704780B586B000AF786074
:101D3C007B68002B01D1012372E27B681B6803F0E6
:101D4C000103002B00F08780924B5B6803F00C03BF
:101D5C00042B0CD08F4B5B6803F00C03082B12D1B7
:101D6C008C4B5B6803F48033B3F5803F0BD1894B0C
:101D7C001B6803F40033002B6CD07B685B68002B72
:101D8C0068D101234CE27B685B68B3F5803F06D1D8
:101D9C00804B1B687F4A43F4803313602EE07B68D2
:101DAC005B68002B0CD17B4B1B687A4A23F4803385
:101DBC001360784B1B68774A23F4802313601DE073
:101DCC007B685B68B3F5A02F0CD1724B1B68714A12
:101DDC0043F4802313606F4B1B686E4A43F48033CB
:101DEC0013600BE06B4B1B686A4A23F4803313605F
:101DFC00684B1B68674A23F4802313607B685B681D
:101E0C00002B13D0FFF7B4FC386108E0FFF7B0FCEF
:101E1C0002463B69D31A642B01D9032300E25D4BC4
:101E2C001B6803F40033002BF0D014E0FFF7A0FC88
:101E3C00386108E0FFF79CFC02463B69D31A642B1F
:101E4C0001D90323ECE1534B1B6803F40033002B43
:101E5C00F0D100E000BF7B681B6803F00203002B8D
:101E6C0063D04C4B5B6803F00C03002B0BD0494B3D
:101E7C005B6803F00C03082B1CD1464B5B6803F426
:101E8C008033002B16D1434B1B6803F00203002B4D
:101E9C0005D07B681B69012B01D00123C0E13D4BB0
:101EAC001B6823F0F8027B685B69DB00394913433C
:101EBC000B603AE07B681B69002B20D0364B01226B
:101ECC001A60FFF755FC386108E0FFF751FC024639
:101EDC003B69D31A022B01D90323A1E12D4B1B68BB
:101EEC0003F00203002BF0D02A4B1B6823F0F802FE
:101EFC007B685B69DB00274913430B6015E0264BBD
:101F0C0000221A60FFF734FC386108E0FFF730FC60
:101F1C0002463B69D31A022B01D9032380E11D4BE6
:101F2C001B6803F00203002BF0D17B681B6803F0E5
:101F3C000803002B3AD07B689B69002B19D0174BF8
:101F4C0001221A60FFF714FC386108E0FFF710FC5F
:101F5C0002463B69D31A022B01D9032360E10D4BD6
:101F6C005B6A03F00203002BF0D0012000F09CFA16
:101F7C001CE00A4B00221A60FFF7FAFB38610FE0F5
:101F8C00FFF7F6FB02463B69D31A022B08D9032351
:101F9C0046E100BF00100240000042428004424271
:101FAC00924B5B6A03F00203002BE9D17B681B6840
:101FBC0003F00403002B00F0A6800023FB758B4B71
:101FCC00DB6903F08053002B0DD1884BDB69874A0A
:101FDC0043F08053D361854BDB6903F08053BB60C6
:101FEC00BB680123FB75824B1B6803F48073002BC9
:101FFC0018D17F4B1B687E4A43F480731360FFF744
:10200C00B7FB386108E0FFF7B3FB02463B69D31A14
:10201C00642B01D9032303E1754B1B6803F4807314
:10202C00002BF0D07B68DB68012B06D16F4B1B6A51
:10203C006E4A43F0010313622DE07B68DB68002BD2
:10204C000CD16A4B1B6A694A23F001031362674B7C
:10205C001B6A664A23F0040313621CE07B68DB688E
:10206C00052B0CD1614B1B6A604A43F004031362CD
:10207C005E4B1B6A5D4A43F0010313620BE05B4B42
:10208C001B6A5A4A23F001031362584B1B6A574AC6
:10209C0023F0040313627B68DB68002B15D0FFF779
:1020AC0067FB38610AE0FFF763FB02463B69D31A12
:1020BC0041F28832934201D90323B1E04B4B1B6AA6
:1020CC0003F00203002BEED014E0FFF751FB386154
:1020DC000AE0FFF74DFB02463B69D31A41F2883206
:1020EC00934201D903239BE0404B1B6A03F002038C
:1020FC00002BEED1FB7D012B05D13C4BDB693B4A20
:10210C0023F08053D3617B68DB69002B00F0878060
:10211C00364B5B6803F00C03082B61D07B68DB69E2
:10212C00022B46D1334B00221A60FFF721FB38619A
:10213C0008E0FFF71DFB02463B69D31A022B01D9BD
:10214C0003236DE0294B1B6803F00073002BF0D1C7
:10215C007B681B6AB3F5803F08D1244B5B6823F482
:10216C0000327B689B68214913434B601F4B5B68B3
:10217C0023F474127B68196A7B685B6A0B431B49F6
:10218C0013434B601B4B01221A60FFF7F1FA3861C5
:10219C0008E0FFF7EDFA02463B69D31A022B01D98E
:1021AC0003233DE0114B1B6803F00073002BF0D0B0
:1021BC0035E0104B00221A60FFF7DAFA386108E0BC
:1021CC00FFF7D6FA02463B69D31A022B01D9032337
:1021DC0026E0064B1B6803F00073002BF0D11EE0C9
:1021EC007B68DB69012B07D1012319E00010024049
:1021FC0000700040600042420B4B5B68FB60FB6868
:10220C0003F480327B681B6A9A4206D1FB6803F4A4
:10221C0070127B685B6A9A4201D0012300E00023B4
:10222C0018461837BD4680BD0010024080B584B0FA
:10223C0000AF786039607B68002B01D10123D0E0BE
:10224C006A4B1B6803F007033A689A4210D9674B34
:10225C001B6823F0070265493B6813430B60634B13
:10226C001B6803F007033A689A4201D00123B8E0D7
:10227C007B681B6803F00203002B20D07B681B6873
:10228C0003F00403002B05D0594B5B68584A43F408
:10229C00E06353607B681B6803F00803002B05D0D8
:1022AC00534B5B68524A43F460535360504B5B682A
:1022BC0023F0F0027B689B684D4913434B607B68AD
:1022CC001B6803F00103002B40D07B685B68012B7B
:1022DC0007D1474B1B6803F40033002B15D10123A6
:1022EC007FE07B685B68022B07D1414B1B6803F0D6
:1022FC000073002B09D1012373E03D4B1B6803F0E5
:10230C000203002B01D101236BE0394B5B6823F0F6
:10231C0003027B685B68364913434B60FFF728FA6E
:10232C00F8600AE0FFF724FA0246FB68D31A41F280
:10233C008832934201D9032353E02D4B5B6803F0A1
:10234C000C027B685B689B009A42EBD1274B1B68A5
:10235C0003F007033A689A4210D2244B1B6823F00F
:10236C00070222493B6813430B60204B1B6803F0A8
:10237C0007033A689A4201D0012332E07B681B685C
:10238C0003F00403002B08D0194B5B6823F4E062C4
:10239C007B68DB68164913434B607B681B6803F052
:1023AC000803002B09D0124B5B6823F460527B6846
:1023BC001B69DB000E4913434B6000F021F8024609
:1023CC000B4B5B681B0903F00F030A49CB5C22FA29
:1023DC0003F3094A1360094B1B681846FFF786F98B
:1023EC00002318461037BD4680BD00BF00200240B8
:1023FC0000100240302D00081000002014000020B6
:10240C0080B487B000AF0023FB600023BB600023C7
:10241C007B6100237B6000233B611E4B5B68FB6090
:10242C00FB6803F00C03042B02D0082B03D027E02D
:10243C00194B3B6127E0FB689B0C03F00F03174A19
:10244C00D35C7B60FB6803F48033002B10D0114B02
:10245C005B685B0C03F00103114AD35CBB607B68C7
:10246C000D4A03FB02F2BB68B2FBF3F37B6104E0A1
:10247C007B680C4A02FB03F37B617B693B6102E0E6
:10248C00054B3B6100BF3B6918461C37BD4680BC01
:10249C00704700BF0010024000127A00402D000867
:1024AC00502D000800093D0080B485B000AF786065
:1024BC000A4B1B680A4AA2FB03235B0A7A6802FBDD
:1024CC0003F3FB6000BFFB685A1EFA60002BF9D1C6
:1024DC0000BF00BF1437BD4680BC70471000002001
:1024EC00D34D621080B582B000AF78607B68002B52
:1024FC0001D1012341E07B6893F83D30DBB2002B26
:10250C0006D17B68002283F83C207868FEF780FFB8
:10251C007B68022283F83D207B681A687B68043351
:10252C001946104600F06EFA7B68012283F84620AB
:10253C007B68012283F83E207B68012283F83F20D0
:10254C007B68012283F840207B68012283F84120BC
:10255C007B68012283F842207B68012283F84320A8
:10256C007B68012283F844207B68012283F8452094
:10257C007B68012283F83D20002318460837BD46AE
:10258C0080BD000080B485B000AF78607B6893F8A4
:10259C003D30DBB2012B01D0012335E07B680222F8
:1025AC0083F83D207B681B68DA687B681B6842F007
:1025BC000102DA607B681B68164A934209D07B687B
:1025CC001B68B3F1804F04D07B681B68124A93429E
:1025DC0011D17B681B689B6803F00703FB60FB68E9
:1025EC00062B10D07B681B681A687B681B6842F04E
:1025FC0001021A6007E07B681B681A687B681B681D
:10260C0042F001021A60002318461437BD4680BC04
:10261C00704700BF002C01400004004080B582B020
:10262C0000AF78607B681B681B6903F00203022B08
:10263C0022D17B681B68DB6803F00203022B1BD1E1
:10264C007B681B686FF002021A617B6801221A77A3
:10265C007B681B689B6903F00303002B03D078682D
:10266C0000F0B4F905E0786800F0A7F9786800F09C
:10267C00B6F97B6800221A777B681B681B6903F02C
:10268C000403042B22D17B681B68DB6803F0040372
:10269C00042B1BD17B681B686FF004021A617B68EA
:1026AC0002221A777B681B689B6903F44073002B2A
:1026BC0003D0786800F08AF905E0786800F07DF9BD
:1026CC00786800F08CF97B6800221A777B681B68AD
:1026DC001B6903F00803082B22D17B681B68DB689D
:1026EC0003F00803082B1BD17B681B686FF00802F2
:1026FC001A617B6804221A777B681B68DB6903F01C
:10270C000303002B03D0786800F060F905E07868CB
:10271C0000F053F9786800F062F97B6800221A77B0
:10272C007B681B681B6903F01003102B22D17B689C
:10273C001B68DB6803F01003102B1BD17B681B6834
:10274C006FF010021A617B6808221A777B681B688D
:10275C00DB6903F44073002B03D0786800F036F982
:10276C0005E0786800F029F9786800F038F97B68A2
:10277C0000221A777B681B681B6903F00103012B8D
:10278C000ED17B681B68DB6803F00103012B07D1BA
:10279C007B681B686FF001021A617868FEF758FFBE
:1027AC007B681B681B6903F08003802B0ED17B6850
:1027BC001B68DB6803F08003802B07D17B681B68E8
:1027CC006FF080021A61786800F06BFA7B681B6806
:1027DC001B6903F04003402B0ED17B681B68DB6840
:1027EC0003F04003402B07D17B681B686FF040025D
:1027FC001A61786800F0FCF87B681B681B6903F0B1
:10280C002003202B0ED17B681B68DB6803F02003B0
:10281C00202B07D17B681B686FF020021A61786847
:10282C0000F036FA00BF0837BD4680BD80B584B0D5
:10283C0000AF786039600023FB737B6893F83C3001
:10284C00012B01D10223B4E07B68012283F83C20E8
:10285C007B68022283F83D207B681B689B68BB6009
:10286C00BB6823F07703BB60BB6823F47F43BB607A
:10287C007B681B68BA689A603B681B68B3F5005F9D
:10288C003ED0B3F5005F00F28780B3F5805F00F0B7
:10289C008680B3F5805F7FD8702B1AD0702B7BD8D5
:1028AC00602B50D0602B77D8502B3CD0502B73D84A
:1028BC00402B58D0402B6FD8302B64D0302B6BD89A
:1028CC00202B60D0202B67D8002B5CD0102B5AD03B
:1028DC0062E07B6818683B6899683B685A683B689B
:1028EC00DB6800F05EF97B681B689B68BB60BB68AB
:1028FC0043F07703BB607B681B68BA689A604FE053
:10290C007B6818683B6899683B685A683B68DB6869
:10291C0000F047F97B681B689A687B681B6842F477
:10292C0080429A603CE07B6818683B6859683B6859
:10293C00DB681A4600F0BEF87B681B68502118460D
:10294C0000F015F92CE07B6818683B6859683B6807
:10295C00DB681A4600F0DCF87B681B6860211846BF
:10296C0000F005F91CE07B6818683B6859683B6807
:10297C00DB681A4600F09EF87B681B6840211846FD
:10298C0000F0F5F80CE07B681A683B681B68194688
:10299C00104600F0ECF803E00123FB7300E000BFED
:1029AC007B68012283F83D207B68002283F83C2061
:1029BC00FB7B18461037BD4680BD80B483B000AF9A
:1029CC00786000BF0C37BD4680BC704780B483B0C4
:1029DC0000AF786000BF0C37BD4680BC704780B438
:1029EC0083B000AF786000BF0C37BD4680BC704729
:1029FC0080B483B000AF786000BF0C37BD4680BC9C
:102A0C007047000080B485B000AF786039607B6897
:102A1C001B68FB607B68254A934207D07B68B3F147
:102A2C00804F03D07B68224A934208D1FB6823F085
:102A3C007003FB603B685B68FA681343FB607B6860
:102A4C001A4A934207D07B68B3F1804F03D07B685E
:102A5C00174A934208D1FB6823F44073FB603B6830
:102A6C00DB68FA681343FB60FB6823F080023B6869
:102A7C005B691343FB607B68FA681A603B689A6871
:102A8C007B68DA623B681A687B689A627B68074AE3
:102A9C00934203D13B681A697B681A637B680122F5
:102AAC005A6100BF1437BD4680BC7047002C0140F2
:102ABC000004004080B487B000AFF860B9607A6061
:102ACC00FB681B6A7B61FB681B6A23F00102FB68D5
:102ADC001A62FB689B693B613B6923F0F0033B6125
:102AEC007B681B013A6913433B617B6923F00A0342
:102AFC007B617A69BB6813437B61FB683A699A61B5
:102B0C00FB687A691A6200BF1C37BD4680BC7047EF
:102B1C0080B487B000AFF860B9607A60FB681B6A5C
:102B2C007B61FB681B6A23F01002FB681A62FB686E
:102B3C009B693B613B6923F470433B617B681B03DE
:102B4C003A6913433B617B6923F0A0037B61BB684B
:102B5C001B017A6913437B61FB683A699A61FB68D4
:102B6C007A691A6200BF1C37BD4680BC704780B4BE
:102B7C0085B000AF786039607B689B68FB60FB6850
:102B8C0023F07003FB603A68FB68134343F00703C0
:102B9C00FB607B68FA689A6000BF1437BD4680BC46
:102BAC00704780B487B000AFF860B9607A603B6062
:102BBC00FB689B687B617B6923F47F437B613B688B
:102BCC001A027B681A43BB6813437A6913437B610F
:102BDC00FB687A699A6000BF1C37BD4680BC7047A1
:102BEC0080B485B000AF786039607B6893F83C3076
:102BFC00012B01D1022341E07B68012283F83C20A8
:102C0C007B68022283F83D207B681B685B68FB6055
:102C1C007B681B689B68BB60FB6823F07003FB60E0
:102C2C003B681B68FA681343FB607B681B68FA6897
:102C3C005A607B681B68144A934209D07B681B68F6
:102C4C00B3F1804F04D07B681B68104A93420CD1BF
:102C5C00BB6823F08003BB603B685B68BA681343B6
:102C6C00BB607B681B68BA689A607B68012283F83A
:102C7C003D207B68002283F83C2000231846143743
:102C8C00BD4680BC704700BF002C014000040040D2
:102C9C0080B483B000AF786000BF0C37BD4680BCF9
:102CAC00704780B483B000AF786000BF0C37BD466E
:102CBC0080BC704770B500260C4D0D4C641BA410E5
:102CCC00A64209D100F022F800260A4D0A4C641BDA
:102CDC00A410A64205D170BD55F8043B98470136A7
:102CEC00EEE755F8043B98470136F2E7542D0008FF
:102CFC00542D0008542D0008582D0008034602449A
:102D0C00934200D1704703F8011BF9E7F8B500BFF7
:102D1C00F8BC08BC9E467047F8B500BFF8BC08BCB0
:042D2C009E46704708
:102D3000000000000000000001020304060708096B
:102D400002030405060708090A0B0C0D0E0F1010EC
:042D5000010200007C
:042D54003101000841
:042D58000D01000861
:102D5C001E0000001900000002000000010000002D
:0C2D6C000024F400100000000100000032
:040000050800168158
:00000001FF
