:020000040800F2
:10000000002800207D1200080D12000813120008BD
:10001000191200081F120008251200080000000035
:100020000000000000000000000000002B1200088B
:100030003712000800000000431200084F120008A9
:10004000C5120008C5120008C5120008C512000834
:10005000C5120008C5120008C5120008C512000824
:10006000C5120008C5120008C5120008C512000814
:10007000C5120008C5120008C5120008C512000804
:10008000C5120008C5120008C5120008C5120008F4
:10009000C5120008C5120008C5120008C5120008E4
:1000A000C5120008C5120008C5120008C5120008D4
:1000B0005D120008C512000800000000C51200080B
:1000C000C51200080000000000000000C512000872
:1000D00000000000C5120008C51200080000000062
:1000E000C5120008C5120008C51200080000000073
:1000F0000000000000000000000000000000000000
:0C01000000000000000000005FF808F1A3
:10010C0010B5054C237833B9044B13B10448AFF345
:10011C0000800123237010BD30000020000000007F
:10012C00E828000808B5034B1BB103490348AFF39B
:10013C00008008BD0000000034000020E828000802
:10014C0080B500AF01F0BAF800F06EF800F0F4F8EA
:10015C0000F0A6F8304801F0FDFF0A2000F014FF73
:10016C000A2000F02BFF0A2000F042FF0A2000F0CA
:10017C0059FF00F0C7FF0346002B0DD000F0D2FE54
:10018C002021264801F09EFB1021244801F09AFB07
:10019C004FF47A7000F0F8FE00F0BEFF0346002B1F
:1001AC0022D01F4B1B680622934202DB1C4B002201
:1001BC001A601B4B1B685A1C19490A60184600F040
:1001CC00ABFA184B1B680822934202DB154B00223A
:1001DC001A60144B1B685A1C12490A60184600F02E
:1001EC00D3FC0A2000F0EAFE00F0A0FF0346002B2F
:1001FC0005D000F0AFFB4FF47A7000F0F9FE00F080
:10020C009FFF0346002BB4D000F08CFE4FF47A70A5
:10021C0000F008FFADE700BF4C00002000080140D3
:10022C0094000020A400002080B590B000AF07F12E
:10023C00180328220021184602F048FB3B1D00221F
:10024C001A605A609A60DA601A610223BB6101235A
:10025C00BB621023FB6200237B6307F11803184673
:10026C0001F04AFB0346002B01D000F087FE0F2360
:10027C007B600023BB600023FB6000233B610023F9
:10028C007B613B1D0021184601F0B8FD0346002B95
:10029C0001D000F073FE00BF4037BD4680BD0000AA
:1002AC0080B586B000AF07F1080300221A605A60CF
:1002BC009A60DA603B4600221A605A601D4B4FF080
:1002CC0080421A601B4B41F63F725A60194B002258
:1002DC009A60184B0922DA60164B00221A61154BF2
:1002EC0000229A61134801F0E5FE0346002B01D071
:1002FC0000F044FE4FF48053BB6007F1080319462D
:10030C000C4802F07BF80346002B01D000F036FEBF
:10031C0000233B6000237B603B461946054802F0F6
:10032C0047FA0346002B01D000F028FE00BF183717
:10033C00BD4680BD4C00002080B586B000AF07F1F3
:10034C00080300221A605A609A60DA60224B9B699B
:10035C00214A43F0040393611F4B9B6903F0040390
:10036C007B607B681C4B9B691B4A43F008039361C1
:10037C00194B9B6903F008033B603B6800224FF666
:10038C00FE71164801F086FA00224FF6FF711448F0
:10039C0001F080FA4FF6FE73BB600123FB60002373
:1003AC003B6102237B6107F1080319460B4801F0FE
:1003BC00F5F84FF6FF73BB600123FB6000233B6134
:1003CC0002237B6107F108031946054801F0E6F8A2
:1003DC0000BF1837BD4680BD001002400008014028
:1003EC00000C014080B582B000AF786000F034FEA4
:1003FC0000BF0837BD4680BD80B582B000AF7860C5
:10040C007B68092B00F2808101A252F823F000BF17
:10041C00450400088D040008D50400081D050008DB
:10042C0065050008AD050008F50500083D06000847
:10043C0085060008CD06000800220121B54801F010
:10044C0029FA00220221B34801F024FA00220421E7
:10045C00B04801F01FFA00220821AE4801F01AFA48
:10046C0000221021AB4801F015FA00222021A948E6
:10047C0001F010FA01224021A64801F00BFA44E1E8
:10048C0001220121A34801F005FA00220221A14812
:10049C0001F000FA002204219E4801F0FBF9012230
:1004AC0008219C4801F0F6F901221021994801F02D
:1004BC00F1F901222021974801F0ECF901224021A9
:1004CC00944801F0E7F920E100220121914801F064
:1004DC00E1F9002202218F4801F0DCF9012204210C
:1004EC008C4801F0D7F9002208218A4801F0D2F992
:1004FC0000221021874801F0CDF9012220218548E6
:10050C0001F0C8F900224021824801F0C3F9FCE057
:10051C00002201217F4801F0BDF9002202217D4813
:10052C0001F0B8F9002204217A4801F0B3F9002255
:10053C000821784801F0AEF901221021754801F02C
:10054C00A9F901222021734801F0A4F900224021CD
:10055C00704801F09FF9D8E0012201216D4801F0AB
:10056C0099F9002202216B4801F094F90022042130
:10057C00684801F08FF901220821664801F08AF9D8
:10058C0001221021634801F085F9002220216148E5
:10059C0001F080F9002240215E4801F07BF9B4E0C3
:1005AC00002201215B4801F075F901220221594812
:1005BC0001F070F900220421564801F06BF9002279
:1005CC000821544801F066F901221021514801F02C
:1005DC0061F9002220214F4801F05CF900224021F2
:1005EC004C4801F057F990E000220121494801F0F4
:1005FC0051F901220221474801F04CF90022042153
:10060C00444801F047F900220821424801F042F920
:10061C00002210213F4801F03DF9002220213D48E5
:10062C0001F038F9002240213A4801F033F96CE02E
:10063C0000220121374801F02DF900220221354812
:10064C0001F028F900220421324801F023F901229B
:10065C000821304801F01EF9012210212D4801F02B
:10066C0019F9012220212B4801F014F90122402113
:10067C00284801F00FF948E000220121254801F03B
:10068C0009F900220221234801F004F90022042177
:10069C00204801F0FFF8002208211E4801F0FAF86A
:1006AC00002210211B4801F0F5F8002220211948E6
:1006BC0001F0F0F800224021164801F0EBF824E09C
:1006CC0000220121134801F0E5F800220221114813
:1006DC0001F0E0F8002204210E4801F0DBF80022C2
:1006EC0008210C4801F0D6F801221021094801F02C
:1006FC00D1F800222021074801F0CCF8002240213B
:10070C00044801F0C7F800E000BF00BF0837BD4641
:10071C0080BD00BF000C014080B582B000AF786096
:10072C007B68052B00F20C8101A252F823F000BF6C
:10073C0055070008A9070008FD0700085108000824
:10074C00A5080008F908000800224FF400617F4852
:10075C0001F0A0F800224FF480617C4801F09AF877
:10076C0000224FF40071794801F094F800224FF404
:10077C008071764801F08EF800228021734801F0D8
:10078C0089F801224021714801F084F8704A7B6895
:10079C0052F823301846FFF72FFED2E000224021FA
:1007AC006A4801F077F800224FF40061674801F0C5
:1007BC0071F800224FF48061644801F06BF800225C
:1007CC004FF40071614801F065F800224FF480711C
:1007DC005E4801F05FF8012280215C4801F05AF874
:1007EC005B4A7B6852F823301846FFF705FEA8E0F9
:1007FC0000228021554801F04DF800224021534839
:10080C0001F048F800224FF40061504801F042F822
:10081C0000224FF480614D4801F03CF800224FF467
:10082C0000714A4801F036F801224FF480714748B4
:10083C0001F030F8464A7B6852F823301846FFF72F
:10084C00DBFD7EE000224FF48071404801F022F87D
:10085C00002280213D4801F01DF8002240213B4838
:10086C0001F018F800224FF40061384801F012F83A
:10087C0000224FF48061354801F00CF801224FF44E
:10088C000071324801F006F8314A7B6852F8233087
:10089C001846FFF7B1FD54E000224FF400712B48CD
:1008AC0000F0F8FF00224FF48071284800F0F2FFAE
:1008BC0000228021254800F0EDFF00224021234832
:1008CC0000F0E8FF00224FF40061204800F0E2FF46
:1008DC0001224FF480611D4800F0DCFF1C4A7B684C
:1008EC0052F823301846FFF787FD2AE000224FF418
:1008FC008061164800F0CEFF00224FF400711348BF
:10090C0000F0C8FF00224FF48071104800F0C2FFC5
:10091C00002280210D4800F0BDFF002240210B4831
:10092C0000F0B8FF01224FF40061084800F0B2FF5C
:10093C00074A7B6852F823301846FFF75DFD00E04C
:10094C0000BF00BF0837BD4680BD00BF0008014096
:10095C000000002080B400AF394B1B680133384ACB
:10096C001360374B1B683B2B07DD354B00221A609D
:10097C00344B1B680133334A1360324B1B683B2BDF
:10098C0007DD304B00221A602F4B1B6801332E4AB7
:10099C0013602D4B1B68172B02DD2B4B00221A60AA
:1009AC00274B1B68294A82FB03129210DB17D31AC0
:1009BC00274A1361224B1968244B83FB01239A109D
:1009CC00CB17D21A13469B0013445B00CA1A204B58
:1009DC005A611C4B1B681D4A82FB03129210DB17D9
:1009EC00D31A1B4A9360174B1968184B83FB0123CE
:1009FC009A10CB17D21A13469B0013445B00CA1AE9
:100A0C00134BDA60104B1B68104A82FB03129210D6
:100A1C00DB17D31A0E4A13600B4B19680B4B83FB75
:100A2C0001239A10CB17D21A13469B0013445B0078
:100A3C00CA1A074B5A6000BFBD4680BC704700BF46
:100A4C00A00000209C0000209800002067666666CD
:100A5C000000002080B582B000AF0346FB71FB792B
:100A6C0003F00103002B06D000224FF4807145489F
:100A7C0000F010FF05E001224FF48071414800F0B6
:100A8C0009FFFB7903F00203002B06D000224FF480
:100A9C0000713C4800F0FEFE05E001224FF40071AD
:100AAC00384800F0F7FEFB7903F00403002B06D066
:100ABC0000224FF48061334800F0ECFE05E0012287
:100ACC004FF480612F4800F0E5FEFB7903F008033A
:100ADC00002B06D000224FF400612A4800F0DAFE09
:100AEC0005E001224FF40061264800F0D3FEFB79AB
:100AFC0003F01003002B06D000224FF48051214844
:100B0C0000F0C8FE05E001224FF480511D4800F0B2
:100B1C00C1FEFB7903F02003002B06D000224FF41A
:100B2C000051184800F0B6FE05E001224FF40051C8
:100B3C00144800F0AFFEFB7903F04003002B06D005
:100B4C0000224FF480410F4800F0A4FE05E0012282
:100B5C004FF480410B4800F09DFE97F90730002BB5
:100B6C0006DA00224FF40041064800F093FE05E03F
:100B7C0001224FF40041034800F08CFE00BF0837FF
:100B8C00BD4680BD000C014080B582B000AF7860DE
:100B9C007B68072B00F2BA8101A252F823F000BF48
:100BAC00CD0B0008350C00089D0C0008050D000845
:100BBC006D0D0008D50D00083D0E0008B10E0008A3
:100BCC0001228021B44800F065FE01224FF400415F
:100BDC00B24800F05FFE01224FF48041AF4800F0B4
:100BEC0059FE01224FF40051AC4800F053FE012293
:100BFC004FF48051A94800F04DFE01220821A7486E
:100C0C0000F048FE01220421A44800F043FE00221B
:100C1C000221A24800F03EFEA14A7B6813441B78D7
:100C2C001846FFF717FF72E1012202219B4800F0E2
:100C3C0031FE01228021984800F02CFE01224FF455
:100C4C000041964800F026FE01224FF48041934863
:100C5C0000F020FE01224FF40051904800F01AFEE3
:100C6C0001224FF480518D4800F014FE012208211E
:100C7C008A4800F00FFE00220421884800F00AFE8A
:100C8C00874A7B6813441B781846FFF7E3FE3EE166
:100C9C0001220421814800F0FDFD012202217F4840
:100CAC0000F0F8FD012280217B4800F0F3FD0122C9
:100CBC004FF40041794800F0EDFD01224FF48041E2
:100CCC00764800F0E7FD01224FF40051734800F024
:100CDC00E1FD01224FF48051704800F0DBFD002251
:100CEC0008216E4800F0D6FD6D4A7B6813441B78D2
:100CFC001846FFF7AFFE0AE101220821674800F011
:100D0C00C9FD01220421654800F0C4FD0122022125
:100D1C00624800F0BFFD012280215F4800F0BAFD5F
:100D2C0001224FF400415D4800F0B4FD01224FF464
:100D3C0080415A4800F0AEFD01224FF40051574853
:100D4C0000F0A8FD00224FF48051544800F0A2FDA1
:100D5C00534A7B6813441B781846FFF77BFED6E09A
:100D6C0001224FF480514D4800F094FD01220821DE
:100D7C004A4800F08FFD01220421484800F08AFD0A
:100D8C0001220221454800F085FD012280214248C4
:100D9C0000F080FD01224FF40041404800F07AFD44
:100DAC0001224FF480413D4800F074FD00224FF4C5
:100DBC0000513A4800F06EFD394A7B6813441B78A9
:100DCC001846FFF747FEA2E001224FF400513348CA
:100DDC0000F060FD01224FF48051304800F05AFDC4
:100DEC00012208212D4800F055FD012204212B4839
:100DFC0000F050FD01220221284800F04BFD012299
:100E0C008021254800F046FD01224FF40041234883
:100E1C0000F040FD00224FF48041204800F03AFDE4
:100E2C001F4A7B6813441B781846FFF713FE6EE0CD
:100E3C0001224FF48041194800F02CFD01224FF49F
:100E4C000051164800F026FD01224FF48051134842
:100E5C0000F020FD01220821104800F01BFD0122AA
:100E6C0004210E4800F016FD012202210B4800F06F
:100E7C0011FD01228021084800F00CFD00224FF4E6
:100E8C000041064800F006FD054A7B6813441B78B8
:100E9C001846FFF7DFFD3AE0000C01400008014066
:100EAC001800002001224FF400411B4800F0F2FC16
:100EBC0001224FF48041184800F0ECFC01224FF461
:100ECC000051154800F0E6FC01224FF48051124805
:100EDC0000F0E0FC012208210F4800F0DBFC0122AD
:100EEC0004210D4800F0D6FC012202210A4800F032
:100EFC00D1FC00228021094800F0CCFC084A7B6818
:100F0C0013441B781846FFF7A5FD00E000BF00BF97
:100F1C000837BD4680BD00BF00080140000C0140F1
:100F2C001800002080B483B000AF134B1B78FB710A
:100F3C00114B5A78104B1A700F4B9A780E4B5A7003
:100F4C000D4BDA780C4B9A700B4B1A790A4BDA7002
:100F5C00094B5A79084B1A71074B9A79064B5A71FF
:100F6C00054BDA79044B9A71034AFB79D37100BFB4
:100F7C000C37BD4680BC70471800002080B400AF11
:100F8C0072B600BFFEE7000080B483B000AF78609B
:100F9C00074B1B687A6892FBF3F3064A1360064B07
:100FAC0000221A6000BF0C37BD4680BC704700BFE2
:100FBC0020000020A8000020AC00002080B483B0EA
:100FCC0000AF7860074B1B687A6892FBF3F3064A14
:100FDC001360064B00221A6000BF0C37BD4680BC64
:100FEC00704700BF20000020B0000020B40000209B
:100FFC0080B483B000AF7860074B1B687A6892FBB3
:10100C00F3F3064A1360064B00221A6000BF0C373C
:10101C00BD4680BC704700BF20000020B8000020F7
:10102C00BC00002080B483B000AF7860074B1B6815
:10103C007A6892FBF3F3064A1360064B00221A609F
:10104C0000BF0C37BD4680BC704700BF200000209D
:10105C00C0000020C400002080B400AF214B1B68EE
:10106C00002B0BDD1F4B1B68013B1E4A13601D4BF5
:10107C001B68002B02DC1C4B01221A601B4B1B68EB
:10108C00002B0BDD194B1B68013B184A1360174BE7
:10109C001B68002B02DC164B01221A60154B1B68D7
:1010AC00002B0BDD134B1B68013B124A1360114BD9
:1010BC001B68002B02DC104B01221A600F4B1B68C3
:1010CC00002B0BDD0D4B1B68013B0C4A13600B4BCB
:1010DC001B68002B02DC0A4B01221A6000BFBD46C4
:1010EC0080BC7047A8000020AC000020B00000209D
:1010FC00B4000020B8000020BC000020C00000207C
:10110C00C400002080B400AF024B1B681846BD46DB
:10111C0080BC7047AC00002080B400AF024B1B6851
:10112C001846BD4680BC7047B400002080B400AFA8
:10113C00024B1B681846BD4680BC7047BC000020A3
:10114C0080B400AF024B1B681846BD4680BC70478C
:10115C00C400002080B485B000AF154B9B69144AC5
:10116C0043F001039361124B9B6903F00103BB60D5
:10117C00BB680F4BDB690E4A43F08053D3610C4BB9
:10118C00DB6903F080537B607B680A4B5B68FB6018
:10119C00FB6823F0E063FB60FB6843F08063FB605B
:1011AC00044AFB68536000BF1437BD4680BC7047CF
:1011BC00001002400000014080B584B000AF7860A0
:1011CC007B681B68B3F1804F13D10C4BDB690B4A66
:1011DC0043F00103D361094BDB6903F00103FB60AE
:1011EC00FB68002200211C2000F0A1F91C2000F05B
:1011FC00BAF900BF1037BD4680BD00BF00100240D9
:10120C0080B400AFFEE780B400AFFEE780B400AF5F
:10121C00FEE780B400AFFEE780B400AFFEE780B419
:10122C0000AF00BFBD4680BC704780B400AF00BFAC
:10123C00BD4680BC704780B400AF00BFBD4680BCCB
:10124C00704780B500AF00F07FF800BF80BD000094
:10125C0080B500AF024800F0C9FF00BF80BD00BFE1
:10126C004C00002080B400AF00BFBD4680BC70476E
:10127C00FFF7F8FF0B480C490C4A002302E0D45846
:10128C00C4500433C4188C42F9D3094A094C0023C6
:10129C0001E013600432A242FBD301F0F3FAFEF733
:1012AC004FFF704700000020300000202C29000860
:1012BC0030000020CC000020FEE7000080B500AF1D
:1012CC00084B1B68074A43F010031360032000F01F
:1012DC0023F90F2000F008F8FFF73CFF0023184615
:1012EC0080BD00BF0020024080B582B000AF7860A6
:1012FC00124B1A68124B1B7819464FF47A73B3FBD6
:10130C00F1F3B2FBF3F3184600F03BF90346002B64
:10131C0001D001230EE07B680F2B0AD800227968DC
:10132C004FF0FF3000F003F9064A7B68136000238E
:10133C0000E0012318460837BD4680BD240000207C
:10134C002C0000202800002080B400AF054B1B7837
:10135C001A46054B1B681344034A136000BFBD4675
:10136C0080BC70472C000020C800002080B400AF67
:10137C00024B1B681846BD4680BC7047C800002055
:10138C0080B485B000AF78607B6803F00703FB6026
:10139C000C4BDB68BB60BA684FF6FF031340BB60B5
:1013AC00FB681A02BB68134343F0BF6343F400337A
:1013BC00BB60044ABB68D36000BF1437BD4680BC19
:1013CC00704700BF00ED00E080B400AF044BDB6859
:1013DC001B0A03F007031846BD4680BC704700BFCC
:1013EC0000ED00E080B483B000AF0346FB7197F9C9
:1013FC000730002B0BDBFB7903F01F02064997F932
:10140C0007305B09012000FA02F241F8232000BFEB
:10141C000C37BD4680BC704700E100E080B483B05F
:10142C0000AF03463960FB7197F90730002B0ADBDC
:10143C003B68DAB20C4997F907301201D2B20B446F
:10144C0083F800230AE03B68DAB20849FB7903F021
:10145C000F03043B1201D2B20B441A7600BF0C37B7
:10146C00BD4680BC704700BF00E100E000ED00E02D
:10147C0080B489B000AFF860B9607A60FB6803F0A3
:10148C000703FB61FB69C3F10703042B28BF04238B
:10149C00BB61FB690433062B02D9FB69033B00E0FB
:1014AC0000237B614FF0FF32BB6902FA03F3DA438E
:1014BC00BB681A407B699A404FF0FF317B6901FA97
:1014CC0003F3D9437B680B40134318462437BD46BE
:1014DC0080BC704780B582B000AF78607B68013B00
:1014EC00B3F1807F01D301230FE00A4A7B68013BF3
:1014FC0053600F214FF0FF30FFF790FF054B002298
:10150C009A60044B07221A60002318460837BD4620
:10151C0080BD00BF10E000E080B582B000AF786005
:10152C007868FFF72DFF00BF0837BD4680BD80B53A
:10153C0086B000AF0346B9607A60FB7300237B6111
:10154C00FFF742FF78617A68B9687869FFF790FF16
:10155C00024697F90F3011461846FFF75FFF00BFA0
:10156C001837BD4680BD80B582B000AF0346FB7115
:10157C0097F907301846FFF735FF00BF0837BD460F
:10158C0080BD80B582B000AF78607868FFF7A2FFAD
:10159C00034618460837BD4680BD000080B48BB0AA
:1015AC0000AF7860396000237B6200233B6261E10D
:1015BC0001227B6A02FA03F3FB613B681B68FA6940
:1015CC001340BB61BA69FB699A4240F050813B6899
:1015DC005B68974A93425ED0954A934275D8954A78
:1015EC00934258D0934A93426FD8934A934252D025
:1015FC00914A934269D8914A93424CD08F4A934274
:10160C0063D88F4A934246D08D4A93425DD8122BB1
:10161C002AD8122B59D801A252F823F0A31600088D
:10162C007D1600088F160008D1160008D716000882
:10163C00D7160008D7160008D7160008D7160008CA
:10164C00D7160008D7160008D7160008D7160008BA
:10165C00D7160008D7160008D7160008D7160008AA
:10166C008516000899160008764A934213D02CE090
:10167C003B68DB683B6229E03B68DB6804333B6218
:10168C0024E03B68DB6808333B621FE03B68DB68A7
:10169C000C333B621AE03B689B68002B02D104239D
:1016AC003B6213E03B689B68012B05D108233B622E
:1016BC007B68FA691A6109E008233B627B68FA6966
:1016CC005A6103E000233B6200E000BFBB69FF2BC3
:1016DC0001D87B6801E07B6804337B61BB69FF2B1D
:1016EC0002D87B6A9B0002E07B6A083B9B003B6153
:1016FC007B691A680F213B6901FA03F3DB431A403B
:10170C00396A3B6901FA03F31A437B691A603B6837
:10171C005B6803F08053002B00F0A9804A4B9B6957
:10172C00494A43F001039361474B9B6903F0010362
:10173C00BB60BB68454A7B6A9B08023352F8233076
:10174C00FB607B6A03F003039B000F2202FA03F396
:10175C00DB43FA681340FB607B683D4A93420DD033
:10176C007B683C4A934207D07B683B4A934201D149
:10177C00022304E0032302E0012300E000237A6A41
:10178C0002F0030292009340FA681343FB602F4966
:10179C007B6A9B080233FA6841F823203B685B683C
:1017AC0003F48013002B06D02C4B9A682B49BB6991
:1017BC0013438B6006E0294B9A68BB69DB432749CE
:1017CC0013408B603B685B6803F40013002B06D05E
:1017DC00224BDA682149BB691343CB6006E01F4BEF
:1017EC00DA68BB69DB431D491340CB603B685B681F
:1017FC0003F40033002B06D0184B5A681749BB6909
:10180C0013434B6006E0154B5A68BB69DB43134925
:10181C0013404B603B685B6803F48033002B1FD094
:10182C000E4B1A680D49BB6913430B601FE000BFD8
:10183C0000003210000031100000221000002110B6
:10184C0000001210000011100010024000000140B6
:10185C0000080140000C0140001001400004014050
:10186C000B4B1A68BB69DB43094913400B607B6A5D
:10187C0001337B623B681A687B6A22FA03F3002B04
:10188C007FF496AE00BF00BF2C37BD4680BC7047BE
:10189C000004014080B483B000AF78600B467B80BD
:1018AC0013467B707B78002B03D07A887B681A6197
:1018BC0003E07B881A047B681A6100BF0C37BD46B5
:1018CC0080BC704780B485B000AF78600B467B80DD
:1018DC007B68DB68FB607A88FB6813401A04FB6842
:1018EC00D9437B880B401A437B681A6100BF1437BD
:1018FC00BD4680BC7047000080B586B000AF7860F4
:10190C007B68002B01D1012372E27B681B6803F01A
:10191C000103002B00F08780924B5B6803F00C03F3
:10192C00042B0CD08F4B5B6803F00C03082B12D1EB
:10193C008C4B5B6803F48033B3F5803F0BD1894B40
:10194C001B6803F40033002B6CD07B685B68002BA6
:10195C0068D101234CE27B685B68B3F5803F06D10C
:10196C00804B1B687F4A43F4803313602EE07B6806
:10197C005B68002B0CD17B4B1B687A4A23F48033B9
:10198C001360784B1B68774A23F4802313601DE0A7
:10199C007B685B68B3F5A02F0CD1724B1B68714A46
:1019AC0043F4802313606F4B1B686E4A43F48033FF
:1019BC0013600BE06B4B1B686A4A23F48033136093
:1019CC00684B1B68674A23F4802313607B685B6851
:1019DC00002B13D0FFF7CAFC386108E0FFF7C6FCF8
:1019EC0002463B69D31A642B01D9032300E25D4BF9
:1019FC001B6803F40033002BF0D014E0FFF7B6FCA7
:101A0C00386108E0FFF7B2FC02463B69D31A642B3D
:101A1C0001D90323ECE1534B1B6803F40033002B77
:101A2C00F0D100E000BF7B681B6803F00203002BC1
:101A3C0063D04C4B5B6803F00C03002B0BD0494B71
:101A4C005B6803F00C03082B1CD1464B5B6803F45A
:101A5C008033002B16D1434B1B6803F00203002B81
:101A6C0005D07B681B69012B01D00123C0E13D4BE4
:101A7C001B6823F0F8027B685B69DB003949134370
:101A8C000B603AE07B681B69002B20D0364B01229F
:101A9C001A60FFF76BFC386108E0FFF767FC024641
:101AAC003B69D31A022B01D90323A1E12D4B1B68EF
:101ABC0003F00203002BF0D02A4B1B6823F0F80232
:101ACC007B685B69DB00274913430B6015E0264BF1
:101ADC0000221A60FFF74AFC386108E0FFF746FC69
:101AEC0002463B69D31A022B01D9032380E11D4B1B
:101AFC001B6803F00203002BF0D17B681B6803F01A
:101B0C000803002B3AD07B689B69002B19D0174B2C
:101B1C0001221A60FFF72AFC386108E0FFF726FC67
:101B2C0002463B69D31A022B01D9032360E10D4B0A
:101B3C005B6A03F00203002BF0D0012000F09CFA4A
:101B4C001CE00A4B00221A60FFF710FC38610FE012
:101B5C00FFF70CFC02463B69D31A022B08D903236E
:101B6C0046E100BF001002400000424280044242A5
:101B7C00924B5B6A03F00203002BE9D17B681B6874
:101B8C0003F00403002B00F0A6800023FB758B4BA5
:101B9C00DB6903F08053002B0DD1884BDB69874A3E
:101BAC0043F08053D361854BDB6903F08053BB60FA
:101BBC00BB680123FB75824B1B6803F48073002BFD
:101BCC0018D17F4B1B687E4A43F480731360FFF778
:101BDC00CDFB386108E0FFF7C9FB02463B69D31A1D
:101BEC00642B01D9032303E1754B1B6803F4807349
:101BFC00002BF0D07B68DB68012B06D16F4B1B6A86
:101C0C006E4A43F0010313622DE07B68DB68002B06
:101C1C000CD16A4B1B6A694A23F001031362674BB0
:101C2C001B6A664A23F0040313621CE07B68DB68C2
:101C3C00052B0CD1614B1B6A604A43F00403136201
:101C4C005E4B1B6A5D4A43F0010313620BE05B4B76
:101C5C001B6A5A4A23F001031362584B1B6A574AFA
:101C6C0023F0040313627B68DB68002B15D0FFF7AD
:101C7C007DFB38610AE0FFF779FB02463B69D31A1A
:101C8C0041F28832934201D90323B1E04B4B1B6ADA
:101C9C0003F00203002BEED014E0FFF767FB386172
:101CAC000AE0FFF763FB02463B69D31A41F2883224
:101CBC00934201D903239BE0404B1B6A03F00203C0
:101CCC00002BEED1FB7D012B05D13C4BDB693B4A54
:101CDC0023F08053D3617B68DB69002B00F0878095
:101CEC00364B5B6803F00C03082B61D07B68DB6917
:101CFC00022B46D1334B00221A60FFF737FB3861B9
:101D0C0008E0FFF733FB02463B69D31A022B01D9DB
:101D1C0003236DE0294B1B6803F00073002BF0D1FB
:101D2C007B681B6AB3F5803F08D1244B5B6823F4B6
:101D3C0000327B689B68214913434B601F4B5B68E7
:101D4C0023F474127B68196A7B685B6A0B431B492A
:101D5C0013434B601B4B01221A60FFF707FB3861E2
:101D6C0008E0FFF703FB02463B69D31A022B01D9AB
:101D7C0003233DE0114B1B6803F00073002BF0D0E4
:101D8C0035E0104B00221A60FFF7F0FA386108E0DA
:101D9C00FFF7ECFA02463B69D31A022B01D9032355
:101DAC0026E0064B1B6803F00073002BF0D11EE0FD
:101DBC007B68DB69012B07D1012319E0001002407D
:101DCC0000700040600042420B4B5B68FB60FB689C
:101DDC0003F480327B681B6A9A4206D1FB6803F4D9
:101DEC0070127B685B6A9A4201D0012300E00023E9
:101DFC0018461837BD4680BD0010024080B584B02F
:101E0C0000AF786039607B68002B01D10123D0E0F2
:101E1C006A4B1B6803F007033A689A4210D9674B68
:101E2C001B6823F0070265493B6813430B60634B47
:101E3C001B6803F007033A689A4201D00123B8E00B
:101E4C007B681B6803F00203002B20D07B681B68A7
:101E5C0003F00403002B05D0594B5B68584A43F43C
:101E6C00E06353607B681B6803F00803002B05D00C
:101E7C00534B5B68524A43F460535360504B5B685E
:101E8C0023F0F0027B689B684D4913434B607B68E1
:101E9C001B6803F00103002B40D07B685B68012BAF
:101EAC0007D1474B1B6803F40033002B15D10123DA
:101EBC007FE07B685B68022B07D1414B1B6803F00A
:101ECC000073002B09D1012373E03D4B1B6803F019
:101EDC000203002B01D101236BE0394B5B6823F02B
:101EEC0003027B685B68364913434B60FFF73EFA8D
:101EFC00F8600AE0FFF73AFA0246FB68D31A41F29F
:101F0C008832934201D9032353E02D4B5B6803F0D5
:101F1C000C027B685B689B009A42EBD1274B1B68D9
:101F2C0003F007033A689A4210D2244B1B6823F043
:101F3C00070222493B6813430B60204B1B6803F0DC
:101F4C0007033A689A4201D0012332E07B681B6890
:101F5C0003F00403002B08D0194B5B6823F4E062F8
:101F6C007B68DB68164913434B607B681B6803F086
:101F7C000803002B09D0124B5B6823F460527B687A
:101F8C001B69DB000E4913434B6000F021F802463D
:101F9C000B4B5B681B0903F00F030A49CB5C22FA5D
:101FAC0003F3094A1360094B1B681846FFF79CF9A9
:101FBC00002318461037BD4680BD00BF00200240EC
:101FCC0000100240002900082400002028000020F6
:101FDC0080B487B000AF0023FB600023BB600023FC
:101FEC007B6100237B6000233B611E4B5B68FB60C5
:101FFC00FB6803F00C03042B02D0082B03D027E062
:10200C00194B3B6127E0FB689B0C03F00F03174A4D
:10201C00D35C7B60FB6803F48033002B10D0114B36
:10202C005B685B0C03F00103114AD35CBB607B68FB
:10203C000D4A03FB02F2BB68B2FBF3F37B6104E0D5
:10204C007B680C4A02FB03F37B617B693B6102E01A
:10205C00054B3B6100BF3B6918461C37BD4680BC35
:10206C00704700BF0010024000127A0010290008CF
:10207C002029000800093D0080B485B000AF7860CD
:10208C000A4B1B680A4AA2FB03235B0A7A6802FB11
:10209C0003F3FB6000BFFB685A1EFA60002BF9D1FA
:1020AC0000BF00BF1437BD4680BC70472400002021
:1020BC00D34D621080B582B000AF78607B68002B86
:1020CC0001D1012341E07B6893F83D30DBB2002B5A
:1020DC0006D17B68002283F83C207868FFF76CF807
:1020EC007B68022283F83D207B681A687B68043386
:1020FC001946104600F06EFA7B68012283F84620E0
:10210C007B68012283F83E207B68012283F83F2004
:10211C007B68012283F840207B68012283F84120F0
:10212C007B68012283F842207B68012283F84320DC
:10213C007B68012283F844207B68012283F84520C8
:10214C007B68012283F83D20002318460837BD46E2
:10215C0080BD000080B485B000AF78607B6893F8D8
:10216C003D30DBB2012B01D0012335E07B6802222C
:10217C0083F83D207B681B68DA687B681B6842F03B
:10218C000102DA607B681B68164A934209D07B68AF
:10219C001B68B3F1804F04D07B681B68124A9342D2
:1021AC0011D17B681B689B6803F00703FB60FB681D
:1021BC00062B10D07B681B681A687B681B6842F082
:1021CC0001021A6007E07B681B681A687B681B6851
:1021DC0042F001021A60002318461437BD4680BC39
:1021EC00704700BF002C01400004004080B582B055
:1021FC0000AF78607B681B681B6903F00203022B3D
:10220C0022D17B681B68DB6803F00203022B1BD115
:10221C007B681B686FF002021A617B6801221A77D7
:10222C007B681B689B6903F00303002B03D0786861
:10223C0000F0B4F905E0786800F0A7F9786800F0D0
:10224C00B6F97B6800221A777B681B681B6903F060
:10225C000403042B22D17B681B68DB6803F00403A6
:10226C00042B1BD17B681B686FF004021A617B681E
:10227C0002221A777B681B689B6903F44073002B5E
:10228C0003D0786800F08AF905E0786800F07DF9F1
:10229C00786800F08CF97B6800221A777B681B68E1
:1022AC001B6903F00803082B22D17B681B68DB68D1
:1022BC0003F00803082B1BD17B681B686FF0080226
:1022CC001A617B6804221A777B681B68DB6903F050
:1022DC000303002B03D0786800F060F905E0786800
:1022EC0000F053F9786800F062F97B6800221A77E5
:1022FC007B681B681B6903F01003102B22D17B68D1
:10230C001B68DB6803F01003102B1BD17B681B6868
:10231C006FF010021A617B6808221A777B681B68C1
:10232C00DB6903F44073002B03D0786800F036F9B6
:10233C0005E0786800F029F9786800F038F97B68D6
:10234C0000221A777B681B681B6903F00103012BC1
:10235C000ED17B681B68DB6803F00103012B07D1EE
:10236C007B681B686FF001021A617868FEF73AF817
:10237C007B681B681B6903F08003802B0ED17B6884
:10238C001B68DB6803F08003802B07D17B681B681C
:10239C006FF080021A61786800F06BFA7B681B683A
:1023AC001B6903F04003402B0ED17B681B68DB6874
:1023BC0003F04003402B07D17B681B686FF0400291
:1023CC001A61786800F0FCF87B681B681B6903F0E5
:1023DC002003202B0ED17B681B68DB6803F02003E5
:1023EC00202B07D17B681B686FF020021A6178687C
:1023FC0000F036FA00BF0837BD4680BD80B584B00A
:10240C0000AF786039600023FB737B6893F83C3035
:10241C00012B01D10223B4E07B68012283F83C201C
:10242C007B68022283F83D207B681B689B68BB603D
:10243C00BB6823F07703BB60BB6823F47F43BB60AE
:10244C007B681B68BA689A603B681B68B3F5005FD1
:10245C003ED0B3F5005F00F28780B3F5805F00F0EB
:10246C008680B3F5805F7FD8702B1AD0702B7BD809
:10247C00602B50D0602B77D8502B3CD0502B73D87E
:10248C00402B58D0402B6FD8302B64D0302B6BD8CE
:10249C00202B60D0202B67D8002B5CD0102B5AD06F
:1024AC0062E07B6818683B6899683B685A683B68CF
:1024BC00DB6800F05EF97B681B689B68BB60BB68DF
:1024CC0043F07703BB607B681B68BA689A604FE087
:1024DC007B6818683B6899683B685A683B68DB689E
:1024EC0000F047F97B681B689A687B681B6842F4AC
:1024FC0080429A603CE07B6818683B6859683B688E
:10250C00DB681A4600F0BEF87B681B685021184641
:10251C0000F015F92CE07B6818683B6859683B683B
:10252C00DB681A4600F0DCF87B681B6860211846F3
:10253C0000F005F91CE07B6818683B6859683B683B
:10254C00DB681A4600F09EF87B681B684021184631
:10255C0000F0F5F80CE07B681A683B681B681946BC
:10256C00104600F0ECF803E00123FB7300E000BF21
:10257C007B68012283F83D207B68002283F83C2095
:10258C00FB7B18461037BD4680BD80B483B000AFCE
:10259C00786000BF0C37BD4680BC704780B483B0F8
:1025AC0000AF786000BF0C37BD4680BC704780B46C
:1025BC0083B000AF786000BF0C37BD4680BC70475D
:1025CC0080B483B000AF786000BF0C37BD4680BCD0
:1025DC007047000080B485B000AF786039607B68CC
:1025EC001B68FB607B68254A934207D07B68B3F17C
:1025FC00804F03D07B68224A934208D1FB6823F0BA
:10260C007003FB603B685B68FA681343FB607B6894
:10261C001A4A934207D07B68B3F1804F03D07B6892
:10262C00174A934208D1FB6823F44073FB603B6864
:10263C00DB68FA681343FB60FB6823F080023B689D
:10264C005B691343FB607B68FA681A603B689A68A5
:10265C007B68DA623B681A687B689A627B68074A17
:10266C00934203D13B681A697B681A637B68012229
:10267C005A6100BF1437BD4680BC7047002C014026
:10268C000004004080B487B000AFF860B9607A6095
:10269C00FB681B6A7B61FB681B6A23F00102FB6809
:1026AC001A62FB689B693B613B6923F0F0033B6159
:1026BC007B681B013A6913433B617B6923F00A0376
:1026CC007B617A69BB6813437B61FB683A699A61E9
:1026DC00FB687A691A6200BF1C37BD4680BC704724
:1026EC0080B487B000AFF860B9607A60FB681B6A91
:1026FC007B61FB681B6A23F01002FB681A62FB68A3
:10270C009B693B613B6923F470433B617B681B0312
:10271C003A6913433B617B6923F0A0037B61BB687F
:10272C001B017A6913437B61FB683A699A61FB6808
:10273C007A691A6200BF1C37BD4680BC704780B4F2
:10274C0085B000AF786039607B689B68FB60FB6884
:10275C0023F07003FB603A68FB68134343F00703F4
:10276C00FB607B68FA689A6000BF1437BD4680BC7A
:10277C00704780B487B000AFF860B9607A603B6096
:10278C00FB689B687B617B6923F47F437B613B68BF
:10279C001A027B681A43BB6813437A6913437B6143
:1027AC00FB687A699A6000BF1C37BD4680BC7047D5
:1027BC0080B485B000AF786039607B6893F83C30AA
:1027CC00012B01D1022341E07B68012283F83C20DC
:1027DC007B68022283F83D207B681B685B68FB608A
:1027EC007B681B689B68BB60FB6823F07003FB6015
:1027FC003B681B68FA681343FB607B681B68FA68CC
:10280C005A607B681B68144A934209D07B681B682A
:10281C00B3F1804F04D07B681B68104A93420CD1F3
:10282C00BB6823F08003BB603B685B68BA681343EA
:10283C00BB607B681B68BA689A607B68012283F86E
:10284C003D207B68002283F83C2000231846143777
:10285C00BD4680BC704700BF002C01400004004006
:10286C0080B483B000AF786000BF0C37BD4680BC2D
:10287C00704780B483B000AF786000BF0C37BD46A2
:10288C0080BC704770B500260C4D0D4C641BA41019
:10289C00A64209D100F022F800260A4D0A4C641B0E
:1028AC00A410A64205D170BD55F8043B98470136DB
:1028BC00EEE755F8043B98470136F2E72429000867
:1028CC00242900082429000828290008034602446A
:1028DC00934200D1704703F8011BF9E7F8B500BF2C
:1028EC00F8BC08BC9E467047F8B500BFF8BC08BCE5
:0428FC009E4670473D
:10290000000000000000000001020304060708099F
:1029100002030405060708090A0B0C0D0E0F101020
:0429200001020000B0
:042924003101000875
:042928000D01000895
:10292C000100000002000000030000000400000091
:10293C00050000000600000000FC12111112FC0042
:10294C000A0000000024F400100000000100000048
:040000050800127D60
:00000001FF
